:020000040800F2
:1000000000C0002069110008B9110008B9110008EA
:10001000B9110008B9110008B9110008000000006A
:10002000000000000000000000000000B9110008FE
:10003000B911000800000000B9110008B91100084A
:10004000B9110008B9110008B9110008B911000868
:10005000B9110008B9110008DD0D0008B911000838
:10006000B9110008B9110008B9110008B911000848
:10007000B9110008B9110008B9110008B911000838
:10008000B9110008B9110008B9110008B911000828
:10009000B9110008B9110008B9110008B911000818
:1000A000B9110008B9110008B9110008B911000808
:1000B000B91100080000000000000000B91100089C
:1000C000B91100080000000000000000B91100088C
:1000D00000000000B9110008B9110008000000007C
:1000E000B9110008B911000800000000000000006C
:1000F0000000000000000000000000000000000000
:10010000000000000000000000000000B91100081D
:100110000000000000000000450D0008B9110008B3
:10012000B9110008B9110008B9110008B911000887
:10013000B9110008000000000000000000000000ED
:10014000B9110008B9110008B9110008210D000803
:10015000B9110008B9110008B9110008B911000857
:10016000B9110008B9110008B91100080000000019
:10017000B9110008B91100080000000000000000DB
:10018000B9110008B9110008B911000800000000F9
:1001900080B4064A064B936000AF1B6883F308885F
:1001A000044B1B68BD465DF8047B184700ED00E07A
:1001B000005000080450000870B590B000F03AFC00
:1001C000012000F063FC00F065FE00F0AFFD044686
:1001D00000F03CFE002859D1012600F0B5F80028B7
:1001E0005CD100F0A3FD344BD3F894209200054677
:1001F00055D5D3F8942042F40002C3F8942000F0BF
:100200002BFA00F017FC002000F040FC00F0A2FBED
:1002100000F074FC00F05EFE03F0E5F940220021DE
:10022000684603F063FC254E00F080FD001B0528A6
:1002300004D900F033F900F079FD044600F06EFEB9
:10024000684600F04FFE002807DD684603F06EFAAE
:1002500040220021684603F049FC03F0C7F93378D7
:1002600023B1FA2000F0F8FD00F002FE00F0EEFDF0
:1002700010B900F05BFD054600F058FD41F28833EF
:10028000401B9842D0D900F04BFECDE700F04EFD68
:10029000001BB0F5FA6F9BD900269EE7002500F001
:1002A0004BF80028ABD016B1FFF772FFA7E700F0BC
:1002B0004BF80028F8D1A2E70010024050010020BE
:1002C00010B50C4CADF5006D21464FF40062684648
:1002D00003F0F2FB00236B20CDF8FC3700F064FC48
:1002E0004FF400626946204600F0A4FC0DF5006D55
:1002F00010BD00BF0058030800B50D4B1B68ADF6DC
:10030000040D8BB14FF400620A49684603F0D4FB38
:1003100000236B20CDF8F83700F046FC4FF4006264
:100320006946044800F086FC0DF6040D5DF804FBF8
:10033000F85F030800580308024B1868B0FA80F011
:1003400040097047F85F0308024B1868B0FA80F064
:1003500040097047FC5F03082DE9F7430C7A4E7A99
:10036000093846EA04260123B0420D468DF80730CD
:1003700040F385800B78403B072B05D8DFE803F07E
:10038000083D3B434B3F7965012003B0BDE8F08356
:10039000D1F801403C4A24F07F4444F0006404F169
:1003A0007843A3F5A04393426BD8384F3319BB422F
:1003B00067D8374B1A6899460AB13B688BB94FF03A
:1003C0000A085FFA88F008F1010800F0EDFBB8F1C7
:1003D0006C0FF6D13B680120C9F800000BB903F09F
:1003E00025FB3246204605F10A0100F023FC043EBD
:1003F000284B34441C600020C7E7FFF77DFF264BE5
:1004000001221A70F7E70A24E0B2013400F0CCFBB5
:100410006C2CF9D1EFE71E4B00241C600121032353
:100420000DF107008DF8073002F0CAFE01210DF131
:1004300007008DF8074002F0C3FE8DF80740012148
:100440000DF1070002F0BCFED5E78B7ACD2B0CD165
:10045000CB7ADE2B09D10B7BBA2B06D14B7BAA2B97
:1004600003D1FFF72DFF0024E7E727238DF807309E
:10047000E5E7012000F05EFB00F052FDBBE7032042
:1004800083E7302081E700BFF70F0300F85F030820
:1004900054010020F0390020500100200C490D4883
:1004A0000A6803688AB1013B0360581E272882BF8F
:1004B000B2FA82F252090A600A2203EB4300534364
:1004C0001B0443EA002000F0F1BB0133ECE700BF5E
:1004D0005801002004000020024A13680133184428
:1004E0001060704700000020024BD868C0F3022063
:1004F000704700BF00ED00E0034AD2F8943043F0AB
:100500000103C2F89430704700100240024BD3F848
:100510009400C0F34000704700100240024A136884
:1005200043F001031360704700100240024B18684B
:10053000C0F34000704700BF00100240024A136839
:1005400043F008031360704700100240034A136829
:1005500023F0F00318431060704700BF0010024002
:10056000034A936823F0030318439060704700BF69
:1005700000100240034A936823F4605318439060CC
:10058000704700BF00100240044AD2F8883023F0C0
:1005900040631843C2F88800704700BF0010024053
:1005A000034A136823F0070318431060704700BF25
:1005B00000200240034A136823F4C063184310600C
:1005C000704700BF00700040054AD16C0143D16400
:1005D000D36C82B003400193019B02B0704700BF0F
:1005E00000100240054A916D01439165936D82B000
:1005F00003400193019B02B0704700BF001002400E
:10060000024A136843F004031360704710E000E0EF
:10061000024A536823F47F4353607047001002403E
:1006200000207047034AD2F8883023F00303C2F851
:100630008830704700100240024A936823F4E06358
:100640009360704700100240024A936823F0F00361
:10065000936070470010024038B5444CA36D43F0DE
:100660008053A3650220FFF79BFF414B1B6803F0FB
:100670000703022B03D0AA213E4800F079FC4FF477
:100680000070FFF797FFD4F8983043F00103C4F8E7
:100690009830D4F898309B07FBD5FFF72DFFFFF774
:1006A00035FF0128FBD1FFF739FFFFF73FFF012896
:1006B000FBD1FFF743FFB020FFF748FFFFF7A8FF8C
:1006C0000020FFF74DFFA56815F00C05FBD1FFF7E3
:1006D000BBFFFFF7B1FF4FF46050FFF74BFF264819
:1006E00001F082FFFFF78CFF234801F08BFFFFF73B
:1006F00099FF2846FFF748FF4FF08070FFF772FF21
:10070000A36B43F08073A363A36B23F08073A36395
:100710001A4B5A6822F0E0625A605A6822F000428E
:100720005A605A6822F0405242F000525A605A68A9
:10073000120C120442F43B4242F07F025A605A68A3
:1007400022F47F0242F408125A601A6822F47C52A2
:1007500042F400521A60FFF7C7FEFFF761FF084B33
:100760000001C0B283F8230038BD00BF0010024072
:1007700000200240003B0008006CDC0200600040EA
:1007800000ED00E028498B6D43F0805310B54FF425
:1007900080608B65FFF70EFFFFF7AEFEFFF7B6FE3A
:1007A0000128FBD1FFF7BAFEFFF7C0FE0128FBD1FD
:1007B000FFF7C4FE8020FFF7C9FEFFF729FF0020E6
:1007C000FFF7CEFE8C6814F00C04FBD1FFF73CFF62
:1007D000FFF732FF4FF44050FFF7CCFE134801F013
:1007E00003FFFFF70DFF114801F00CFFFFF71AFFA1
:1007F0004FF04060FFF7C8FEFFF776FEFFF710FFEF
:100800000B4B0001C0B283F823002046FFF7C8FE5F
:10081000084B1B685B0706D040F2A9110648BDE8EB
:10082000104000F0A5BB10BD001002400024F400F1
:1008300000ED00E000200240003B000810B5284C0D
:10084000A36D43F08053A3650120FFF7A9FE254B5C
:100850001B6803F00703012B04D040F2B9112248B2
:1008600000F086FB4FF48060FFF7A4FEFFF744FE24
:10087000FFF74CFE0128FBD1FFF750FEFFF756FEB5
:100880000128FBD1FFF75AFE9020FFF75FFEFFF72C
:10089000BFFE0020FFF764FEA36813F00C0FFBD12E
:1008A000FFF7D2FEFFF7C8FE4FF44050FFF762FE9D
:1008B0000E4801F099FEFFF7A3FE0C4801F0A2FEDE
:1008C000FFF7B0FE4FF04060FFF75EFEFFF70CFE53
:1008D000FFF7A6FE064B0001C0B283F8230010BD4F
:1008E0000010024000200240003B000800366E016C
:1008F00000ED00E0012805D010B1022804D07047B7
:10090000FFF740BFFFF79ABFFFF7A6BE0D4A0E499B
:10091000536843F4806310B5536002F5D0320B4C3A
:10092000936D43F0806393652046002201F093FFAE
:100930002046074901F0A4FF2046BDE8104001F021
:10094000A6BF00BF0070004030000020F439002036
:1009500070000020F0B54FF0804495B000250120D4
:10096000FFF740FE4FF47A77256101A92046CDE9D3
:100970000375ADF80450029501F0E8F8236843F0E0
:1009800080032360A36823F4A03323F00703012628
:10099000A3600CAA602310212046CDE90C36CDE9D6
:1009A0000E67109501F00CF9A369214F23F48063C1
:1009B000A3610CAA4FF480712046CDE90D6601F0C9
:1009C000FFF87B6823F004037B600CAA4FF480518E
:1009D0002046CDE90D6601F0F3F87B6823F48063CF
:1009E0007B60A36823F00803A360A36823F480431B
:1009F000A360A36823F43F43A360636823F07003FC
:100A00006360A36823F08003A3600E22022306A97B
:100A10004FF09040CDE90623CDE90855CDE90A56BF
:100A200000F0F5FF23683343236015B0F0BD00BF2D
:100A30001800004038B501204FF09044FFF7C4FD86
:100A40000220FFF7C1FD2168012393FAA3F2B2FA55
:100A500082F29A40032505FA02F221EA020293FA91
:100A6000A3F12260E26893FAA3F0B0FA80F093FA5F
:100A7000A3F19840B1FA81F105FA00F0994022EA19
:100A800000028B401343E36038BD000030B50446DC
:100A900087B01020FFF7A6FD45F6C0534BF6803017
:100AA000002C18BF1846134CADF8040000255A233B
:100AB00001A92046CDE9025301F048F8236823F04C
:100AC00080032360636823F070036360A36823F0EE
:100AD0008003A360E36843F00103E360236843F00D
:100AE00001032360256162B6034B4FF480025A6014
:100AF00007B030BD0010004000E100E008B54FF441
:100B00008020FFF761FD034A136843F0040313607C
:100B100008BD00BF00080650044B5A69002ABFBF39
:100B2000034A9A6002F188329A60704700200240BE
:100B30002301674508B500282AD100F0BDF9154BFF
:100B4000154A00280CBF1846104614490B6A20F0BD
:100B5000E06083421BD072B60B69DA03FCD4FFF766
:100B6000DBFF4B695B0041BF0D4BCB6003F14433AE
:100B7000CB600A4B18625A6942F400325A611A6912
:100B8000D203FCD45A6942F000425A6162B608BDF1
:100B90000448DAE7AAF8FFFFCCF8FFFF0020024084
:100BA0003B2A1908AAF8FFF708B572B611490B6974
:100BB000DB03FCD4FFF7B0FF0B690B614A6922F439
:100BC000FF6222F007024A614B6943EAC00343F027
:100BD00002034B614B6943F480334B61054B1A6947
:100BE000D203FCD41A695A6922F007025A6162B62C
:100BF00008BD00BF0020024030B572B60C490C465B
:100C00000D69ED03FCD40D690D614D6945F00105D9
:100C10004D61026043602369DB03FCD42369012337
:100C20002361636923F00103636162B630BD00BFD5
:100C3000002002402DE9F3411546164A1369DB03F3
:100C4000FCD4FFF769FF20F007002C4646194F1926
:100C50002B1B9D42A6EB040802D802B0BDE8F08130
:100C6000082C2246A7EB040128BF0822684602F0A0
:100C700023FF072C06D8C4F10802FF210DEB040066
:100C800002F034FFDDE900234046FFF7B5FF083CE2
:100C9000DEE700BF002002401D2893BF024B00EB9F
:100CA00080004000185C704708000020014610B525
:100CB000C0F30740FFF7F0FF0246C1F30720FFF73C
:100CC000EBFF0446C8B2FFF7E7FF642358434FF039
:100CD00080415A43000A6343C0F57A701B0A886357
:100CE000C3F57A734FF4C060B2FBF0F2C2F57A72CA
:100CF000CA630B6410BD4FF090431869C04300F005
:100D00000100704708B5002000F0D2F930B9012089
:100D100000F0CEF9003018BF012008BD0120FCE72B
:100D2000014800F095BB00BF903C0020034B044AF3
:100D30005B6A12685A2000FB0230704700100040C6
:100D40005C01002038B51C4B00221A611B4A136855
:100D500001331360FFF7EAFF194B1B68C01A5A28CA
:100D600005D9184B186810B140B202F073FC164B4D
:100D70001A68164B9A421CD1002000F099F9C8B9A4
:100D8000012000F095F9051C18BF0125104CFFF754
:100D9000CDFF2268801A19280BD90E490A7822B98A
:100DA0001DB1FFF7C3FF0C4B1860FFF7BFFF2060BA
:100DB0000D7038BD0125E9E7001000405C010020FE
:100DC0006C0100206001002028000020050D0008B3
:100DD00064010020710100206801002008B50B4B60
:100DE0005A695A610A4B1A680A4B9A420DD1FFF7A9
:100DF0009DFF09490A68801A192803D9FFF796FF51
:100E0000064B1860FFF792FF086008BD0004014020
:100E100028000020F70C0008640100206801002071
:100E200038B5044672B6FFF781FF064B186062B60C
:100E3000054D2CB12B68A34202D060B202F00AFC2F
:100E40002C6038BD6C01002060010020014B1B6844
:100E5000184700BF2800002010B50146FFF766FFC5
:100E60000446FFF763FF001B8842FAD310BD000061
:100E7000BFF34F8F0549064BCA6802F4E062134383
:100E8000CB60BFF34F8F00BFFDE700BF00ED00E078
:100E90000400FA0510B500F021F9044C20B100F06F
:100EA000B3F8034B236010BD024BFBE72800002082
:100EB000050D0008F70C0008044BD3E90802044BA9
:100EC0009A420CBFC0F3400000207047008803081E
:100ED000781E55AA024B1B780BB9FFF717BD704758
:100EE0007001002010B5044600F088F818B12046C3
:100EF00000F064F8402010BD054902460B8803F05D
:100F00003003302BFAD040238121024801F095BCF8
:100F100004680040F4390020FFF7EEBF704700007E
:100F200080B500AF72B6044B1B6883F30888034B8F
:100F30001B689847FEE700BF0000FF1F0400FF1F6B
:100F40000A4B4CF6CC421A6045F255521A60002208
:100F50005A6040F6FF721A614FF4FA629A60DA68DA
:100F60005207FCD14AF6AA221A60704700300040AE
:100F7000FEE70000F8B50E4D2E68632E014613DC27
:100F80000C4F0D483C68402200EB841002F094FDA9
:100F90000134632CC8BF002306F10106D4BF3C60B6
:100FA0003B602E600020F8BD4FF0FF30FBE700BF34
:100FB000780100207C1A00207C01002010B50C4C28
:100FC0000C4B2168402203EB811102F075FD0A4BA6
:100FD0001A68002A09DD216801316329C8BF002190
:100FE000013A21601A60002010BD4FF0FF30FBE78E
:100FF000740100207C01002078010020014B18685A
:10100000704700BF78010020F0B5184A184F936C64
:1010100043F4803387B0936402243023CDE9003455
:101020000023CDE90233049369460923384605932A
:10103000402500F0ECFC01266946384600950396F1
:1010400000F0E5FC0B4B0C4A1E6019680A431A605D
:101050006FF070021A611D621C635A6822F003026D
:101060005A6003229A6007B0F0BD00BF0010024032
:101070000004004800400240C0400279074B1A6853
:1010800022F002021A6003229A601A6822F010020B
:101090001A601A6842F002021A607047004002406B
:1010A000024BDA68D207FCD5DB687047004002408B
:1010B00008B5094958B101280CD0FFF7DFFFFFF749
:1010C000EFFF886B2C288CBF0020012008BD102367
:1010D0008B62F2E72023FBE70040024070B5204D11
:1010E0002B78002B3AD11F4A0223106893FAA3F100
:1010F000B1FA81F10324490004FA01F120EA010167
:1011000093FAA3F01160D06893FAA3F1B1FA81F1D8
:1011100093FAA3F3B3FA83F3490004FA01F1012629
:101120005B0020EA010106FA03F30B43D36000BF22
:1011300000BF00BF00BF106980F00200C0F3400094
:101140002870D16896FAA6F3B3FA83F3B3409C40B3
:1011500021EA040496FAA6F6D46070BD0120FCE7EB
:10116000801A002000040048DFF834D000F026F890
:10117000002103E00B4B5B58435004310A480B4BF2
:1011800042189A42F6D30A4A02E0002342F8043B8E
:10119000084B9A42F9D302F05DFCFFF70DF8FEE729
:1011A00000C00020EC3B000800000020500100209F
:1011B0005001002034410020FEE700000E4AD2F822
:1011C000883043F47003C2F888300C4B1A68002052
:1011D00042F001021A6098601A6822F0A85222F4C4
:1011E00010221A604FF48052DA601A6822F48022CA
:1011F0001A609861FFF77EBB00ED00E0001002402E
:101200002DE9F041044686B0002869D090F82934D1
:1012100003F0FF021BB980F8282401F0F9F92546F4
:10122000032355F8100B84F8293400F02AFE0FCD63
:101230006E460FC62B68336004F1040898E80E0070
:10124000206800F00DFE0021206800F024FE00213F
:101250002246234604F110050126084683F828108B
:10126000D98601310F2983F8296083F82B00C3E95F
:101270000E00186403F12003F0D100231F4682F80A
:10128000283201330F2B82F8297282F82B72C2E9BF
:101290008E77C2F8407202F12002F0D10FCD6E4677
:1012A0000FC62B68336098E80E00206800F0F5FD4B
:1012B000012384F8247084F82934E369012B02D1D6
:1012C000204600F08FFB236A012B02D1204600F05C
:1012D00077FB206801F084F8002006B0BDE8F081BB
:1012E0000120FAE790F82834012B10B504460CD001
:1012F000012380F82834006801F06AF8206800F0C3
:10130000B6FD002084F8280410BD0220FCE790F808
:101310002824012A10B504460BD0012280F8282485
:1013200084F82410006801F04DF8002084F82804A7
:1013300010BD0220FCE770B501F00F06044611F065
:10134000800F4FEA461005461ED0254400F12801C3
:101350000120214485F829000A614A780E70CB707B
:1013600002B1CE81022B04BF00230B7194F8283404
:10137000012B11D0012384F82834206800F0AAFD45
:10138000002084F8280470BD254400F50A7100206F
:10139000214485F82902DFE70220F4E710B504466E
:1013A00001F00F00430111F0800F1A4615D02244BE
:1013B00003F128010123214482F82930087094F8B0
:1013C0002834012B11D0012384F82834206800F040
:1013D000D9FE002084F8280410BD224403F50A71C8
:1013E0000023214482F82932E8E70220F4E770B5AF
:1013F00001F00F0100EB41164C01002586F8281280
:1014000004F50A710144C6F83C22C6F84032C6F819
:10141000445286F82952006800F0FEFF284670BD4D
:1014200070B501F00F0100EB41154C012B64002653
:10143000012385F8281004F128010144EA636E6451
:1014400085F82930006800F0E7FF304670BD0000E5
:101450002DE9F84F0446006800F0CAFF000409D5E2
:10146000DFF854A4DFF854B42068B0F844301A040C
:1014700000F1CB80206800F0BBFF41050FD522684A
:10148000B2F8443023F480631B041B0C2046A2F8FE
:10149000443001F010F900212046FFF738FF2068A2
:1014A00000F0A6FF430408D52268B2F8443023F4C4
:1014B00080431B041B0CA2F84430206800F098FF06
:1014C000870408D52268B2F8443023F400531B0483
:1014D0001B0CA2F84430206800F08AFFC60426D511
:1014E0002268B2F8403023F004031B041B0CA2F85E
:1014F0004030B2F8403023F008031B041B0CA2F864
:10150000403094F86034012B05D1002184F8601438
:10151000204600F07BFA204601F0DBF82268B2F8A2
:10152000443023F480531B041B0CA2F84430206881
:1015300000F05EFF05051BD52068B0F8403043F091
:101540000803A0F84030B0F8443023F400631B04D3
:101550001B0CA0F84430B0F8403043F00403A0F86E
:10156000403000F045FFC00402D4204601F0B0F83E
:10157000206800F03DFF010626D52368B3F844201B
:1015800022F080021204120CA3F8442094F8602484
:10159000002A40F08A81B3F8402042F00402A3F808
:1015A0004020B3F8402042F00802A3F84020B3F8EE
:1015B00054309B08012103F03C0384F86014C4F804
:1015C0006434204600F022FA206800F011FF820502
:1015D0000BD52268B2F8443023F400731B041B0CB3
:1015E000A2F84430204601F062F8206800F000FFC5
:1015F000C30508D52268B2F8443023F480731B0475
:101600001B0CA2F84430BDE8F88FB0F8441089B242
:1016100011F00F0740F0A18011F01001038827D1CD
:101620000AEA03030380B0F8502094F8283000F24F
:1016300002401044E26B30F83330C3F309036364B3
:101640001344E363204601F02BF894F82430002B78
:101650003FF40AAF226C002A7FF406AF94F82430DE
:10166000216843F08003A1F84C3084F82420FBE685
:101670009BB21A051DD5B0F8501094F8282200F23C
:1016800006430B4404F5866133F83230B4F82E2259
:10169000C3F30903C4F8443200F08CFF22681388B6
:1016A00023F070031B051B0D1380204600F0E0FFA4
:1016B000DAE61F047FF5D8AE038823F070031B051C
:1016C0001B0D0380B0F8501094F8282200F2064356
:1016D0000B4433F83230C3F30903C4F8443263B126
:1016E000B4F82E22D4F83C1200F064FFD4F83C3257
:1016F000D4F844221344C4F83C320021204600F0C0
:10170000BDFF2268D4F83832B2F8501002F2064514
:1017100089B253B96B5A23F440639B049B0C6FEA64
:1017200043436FEA53436B5207E03D2B10D85808F0
:10173000DE0748BF01308002685213880BEA0303BA
:1017400083F4405343F4004343F0800313808BE65B
:1017500058485B0940EA8323E5E73EB230F826901B
:101760001FFA89F919F4004F3DD030F8263023F0E4
:1017700070031B051B0D4FEA471820F8263004EBB9
:10178000080191F83432002B53D1B0F8505091F841
:10179000282200F206432B4433F83250C5F30905E2
:1017A00035B1B1F82E22D1F83C122B4600F002FFE1
:1017B00004EB461304EB0801D3F844222A44C3F88F
:1017C0004422D1F83C222A44C1F83C22D3F84032CA
:1017D0001BB1D1F8380285425ED2A044204698F869
:1017E000281200F04BFF19F0800F3FF43DAE236844
:1017F00033F826200AEA020223F8262004EB4717D2
:10180000B3F8501097F8282003F202430B4404EB7E
:10181000461633F83220C2F309027264FB6B97F864
:1018200028101A44FA63336C2046DBBB00F038FF03
:101830001AE691F8283230F82350DA00B0F8503028
:101840006D04034413441DD5B3F80254C5F30905D0
:1018500035B1B1F830222B46D1F83C1200F0AAFE87
:1018600004EB0803226893F8281232F8213023F49D
:10187000E04323F0700343F4004343F0C00322F835
:10188000213095E7B3F80654C5F30905002DE7D0DC
:101890002B46B1F83222DFE791F828122046FFF7F5
:1018A000A6FDA0E7FFF7BCFDDEE5204600F010FF37
:1018B0008AE600BF0080FFFF0F8FFFFF8FBFFFFF93
:1018C00038B5436801F00F059D4204462DD811F04C
:1018D000800F4FF020031ED000EB451203FB0503E1
:1018E0000121283382F8291001229A701D7094F882
:1018F000281491421BD084F828241946206800F04F
:1019000007FD25B904F58661206800F074FD00200C
:1019100084F8280438BD03FB010300EB41110022C9
:1019200003F50A7381F82922DEE70120F2E702209D
:10193000F0E738B5044601F00F006368984224D8F8
:10194000430111F0800F1A4617D0224403F12801F9
:101950000123214482F8293000258D70087094F805
:101960002834012B13D0012384F82834206800F098
:10197000EBFC84F82854284638BD224403F50A714C
:101980000023214482F82932E6E70120F4E702200F
:10199000F2E711F0800F1BBF01F00F0100EB4110C7
:1019A00000EB4110283008BF00F50A7099B21AB94F
:1019B0000273C18000207047012202738360F9E73F
:1019C00003680122C0F86C24B3F8582042F00102E9
:1019D000A3F85820B3F8582042F00202A3F8582088
:1019E00000207047036802460121C0F868140020F7
:1019F00082F86004B3F854200A43A3F85420B3F8E3
:101A0000542042F00202A3F85420704770472DE999
:101A1000F04F0A6892FAA2F44D68B4FA84F405F122
:101A2000FF3C4FF0010803264FF00F0E32FA04F38B
:101A30000CD1BCF1010F06D84368C96823EA020340
:101A40004A43134343600120BDE8F08F08FA04F3D2
:101A5000134062D0D0F800A093FAA3F9B9FA89F93B
:101A600093FAA3F7B7FA87F74FEA490906FA09F993
:101A70007F002AEA090905FA07F749EA0707BCF1D6
:101A8000010F076016D8876893FAA3F9B9FA89F9A4
:101A900093FAA3FA4FEA490906FA09F927EA09096C
:101AA000BAFA8AFA8F684FEA4A0A07FA0AF749EA45
:101AB00007078760C76893FAA3F9B9FA89F993FA17
:101AC000A3FA4FEA490906FA09F927EA0909BAFA15
:101AD0008AFA0F694FEA4A0A07FA0AF749EA07073A
:101AE000022DC76019D1FF2BD1F8149017D8D0F868
:101AF00020A093FAA3FBBBFA8BFB93FAA3F7B7FAE8
:101B000087F74FEA8B030EFA03F3BF002AEA0303B9
:101B100009FA07F943EA09030362013486E7476AD1
:101B20001B0A93FAA3FABAFA8AFA93FAA3F3B3FA5E
:101B300083F34FEA8A0A0EFA0AFA9B0027EA0A0799
:101B400009FA03F947EA09074762E6E71A4A036810
:101B5000904210B502D0B0F1804F09D14C6823F00B
:101B60007003904243EA040309D0B0F1804F06D0DD
:101B7000124A904203D002F58062904203D1CA68B3
:101B800023F44073134303608B68C3620B88836242
:101B9000094B984207D003F5A053984203D003F5B0
:101BA0008063984201D10B7C0363436943F00103D6
:101BB0004361012010BD00BF002C014000400140E6
:101BC000B1F5807F30B500F0B58005D801293BD054
:101BD000102973D0002030BDB1F5803F00F0E580C2
:101BE000B1F5801F00F00D81B1F5805FF2D1036A7D
:101BF000156823F480530362036A4468C16921F0C5
:101C0000807121F4E64141EA0521156923F400536E
:101C100043EA0533556823F4805343EA05338F4D77
:101C2000A84207D005F5A055A84203D005F5806568
:101C3000A84204D1956924F4804444EA8514D2680A
:101C40004460C161026436E0036A156823F0010351
:101C50000362036A4168846924F4803424F07304C5
:101C60002C43156923F002032B43556823F001032D
:101C70002B437A4DA84207D005F5A055A84203D0C2
:101C800005F58065A84212D1556923F0080343EA9F
:101C90008503956823F0040343EA8503956921F4DD
:101CA00080712943D56921F4007141EA4501D26868
:101CB000416084614263036201208CE7036A156816
:101CC00023F010030362036A4168846924F080747E
:101CD00024F4E64444EA0524156923F0200343EA8A
:101CE0000513556823F0100343EA05135B4DA84222
:101CF00007D005F5A055A84203D005F58065A84298
:101D000013D1556923F0800343EA8513956823F0C6
:101D1000400343EA8513956921F4806141EA850116
:101D2000D56921F4006141EAC501D268416084614E
:101D30008263C0E7036A156823F480730362036A51
:101D40004168C46924F4803424F073042C43156979
:101D500023F4007343EA0523556823F4807343EAB0
:101D600005233E4DA84207D005F5A055A84203D053
:101D700005F58065A84213D1556923F4006343EA51
:101D80008523956823F4806343EA8523956921F4CC
:101D9000805141EA0511D56921F4005141EA45110C
:101DA000D2684160C461C26385E7036A146823F4A2
:101DB00080330362036A416D21F4803121F07001A8
:101DC0000C43116923F4003343EA0143516823F4BF
:101DD000803343EA01432149884207D001F5A051ED
:101DE000884203D001F58061884206D14168956937
:101DF00021F4803141EA05214160D2684465826561
:101E000059E7036A146823F480130362036A416D7F
:101E100021F0807121F4E04141EA0424116923F4A6
:101E2000001343EA0153516823F4801343EA01533A
:101E30000A49884207D001F5A051884203D001F534
:101E40008061884206D14168956921F4802141EA88
:101E500085214160D2684465C2652CE7002C0140B1
:101E600084B001A880E80E0004B000207047B0F8EC
:101E7000403043F43F4343F08003A0F8403000205B
:101E80007047B0F8403023F47E535B045B0CA0F83D
:101E90004030002070470020704784B010B503AC7C
:101EA00084E80E0000220123A0F84030BDE8104075
:101EB000A0F84020A0F84420A0F85020B0F840300E
:101EC00043F43F4343F08003A0F8403004B0104691
:101ED00070470000F0B50C7830F824200346C8782D
:101EE00022F4EC4222F0700203284CD8DFE800F024
:101EF0000248044542F40072002023F824200E78A2
:101F00009D4C35B233F825202240324342F4004242
:101F100042F0800223F825200D7B0A78002D7CD129
:101F2000CE884F7876080825760015FB023267B315
:101F3000B3F850502A44A2F800640D7833F82520F5
:101F4000560608D533F82520144044F4004444F0E4
:101F5000C00423F82540CA780C78012A33F82410ED
:101F6000864A02EA010218BF82F0200242F40042CF
:101F700042F0800223F82420F0BD42F4C062BBE7A7
:101F800042F48062B8E70120B7E7B3F8504022443A
:101F90000C69A2F804640A78B3F8506015FB0232A9
:101FA000B6B202F2064254B9945B24F44064A4042D
:101FB000A40C6FEA44446FEA5444945307E03D2C68
:101FC00026D86508E40748BF0135AD0295530C7863
:101FD00033F8242052040BD533F8242022F4E042B5
:101FE00022F0700242F4404242F0800223F82420A2
:101FF000097833F8212022F4804222F0700282F422
:10200000405242F4004242F0800223F82120B3E71C
:102010005B4D640945EA8424CFE712B233F82250BD
:10202000254045F4014545F0800523F822500D7800
:10203000B3F85060082212FB053535440E8926F0AE
:102040000106A5F800640E78B3F8505012FB063272
:102050002A444D8925F00105A2F804540A784D78E8
:1020600012B2002D43D133F822506F0408D533F853
:1020700022502C4044F4404444F0800423F8224091
:102080000C7833F8242056060BD533F8242022F49C
:10209000E04222F0700242F4004242F0C00223F813
:1020A00024200C7833F8242022F4E04222F070023D
:1020B00042F4004242F0C00223F824200D7833F8A5
:1020C000252022F4804222F0700248F2800482F43B
:1020D0004052224323F82520097833F8212022F4A6
:1020E000E04222F04002144323F8214044E733F851
:1020F00022506D0408D533F822502C4044F440445B
:1021000044F0800423F822400C7833F8242052064F
:102110000BD533F8242022F4E04222F0700242F47E
:10212000004242F0C00223F824200C7833F8242027
:1021300022F4E04222F0700242F4404242F0800277
:1021400023F824200C78CA7824B2012A33F82450CA
:102150000A4A02EA050218BF82F0200242F4004255
:1021600042F0800223F82420097833F8212022F459
:10217000804222F0700244E78F8FFFFFBF8FFFFF86
:102180000080FFFF10B50C7B4A780B78BCBBF2B126
:1021900030F8232052060BD530F8232022F4E042F9
:1021A00022F0700242F4004242F0C00220F82320E4
:1021B0000A7830F8223023F4E04323F0400343F45C
:1021C000004343F0800320F82230002010BD30F897
:1021D000232054040BD530F8232022F4E04222F0CF
:1021E000700242F4404242F0800220F823200A7834
:1021F00030F8223023F4804323F07003DFE7002A15
:1022000044D130F8232052040BD530F8232022F497
:10221000E04222F0700242F4404242F0800220F894
:1022200023200A7830F822305C060BD530F82230B3
:1022300023F4E04323F0700343F4004343F0C0036E
:1022400020F822300A7830F8223023F4E04323F0DB
:10225000700343F4004343F0C00320F822300C78AD
:1022600030F8243023F4804323F0700348F28002D6
:10227000134320F82430097830F8213023F4E04368
:1022800023F040031A4320F821209EE730F8232052
:1022900052040BD530F8232022F4E04222F07002E1
:1022A00042F4404242F0800220F823200A7830F8BD
:1022B00022305B060BD530F8223023F4E04323F0C4
:1022C000700343F4004343F0C00320F822300A783F
:1022D00030F8223023F4E04323F0700343F440430A
:1022E00043F0800320F822300C7830F8243023F4B7
:1022F000E04323F0400348F28002134320F82430E7
:10230000097830F8213023F4804323F07003B9E7D3
:102310004B780A787BB130F8223023F4E04323F085
:10232000400383F0100343F4004343F0800320F89C
:1023300022300020704730F8223023F4804323F00D
:10234000700383F48053EEE74B780A7803B330F8D8
:1023500022305B060BD530F8223023F4E04323F023
:10236000700343F4004343F0C00320F822300A789E
:1023700030F8223023F4E04323F0400383F03003AD
:1023800043F4004343F0800320F8223000207047DC
:1023900030F822305B040BD530F8223023F4E043D0
:1023A00023F0700343F4404343F0800320F82230CD
:1023B0000A7830F8223023F4804323F0700383F44A
:1023C0004053DDE711B98023A0F84C30002070475E
:1023D000B0F8583043F40043A0F85830002070475C
:1023E000B0F85830C3F30E03A0F8583000207047FF
:1023F000B0F8440070470020704702F58062013356
:1024000002445B0801EB4303521A994200D1704722
:10241000088850520231F8E7F8B5044648788E69CA
:102420000A690F7B01280D4659D196428ABFB11A1D
:1024300000211646A961B6B26969EFB93346EA8848
:102440002046FFF7DAFFB4F850102A7804F202436E
:102450000B4423F832602A7834F8223023F4E04326
:1024600023F0400383F0300343F4004343F0800340
:1024700024F822300020F8BD2B7834F82300DA004D
:10248000B4F850302344134447064BBFA3F8066406
:10249000A3F802646A892A8933462046FFF7ADFF14
:1024A0006A782B786AB91BB234F8232022F4E04210
:1024B00022F0700242F4004242F0C00224F82320CD
:1024C000C9E7012AC7D11BB234F8232022F4E04225
:1024D00022F0700242F4404242F08002EEE796425F
:1024E0008CBFB11A0021A96188BF1646297897B917
:1024F000B4F8500004F20642024402EBC102AEBB43
:10250000138823F440639B049B0C6FEA43436FEAF8
:102510005343138032E088B9B4F8500004F2024209
:10252000024402EBC102A6B9118821F4406189047A
:10253000890C6FEA41416FEA514111806A7828782D
:102540005ABBB4F8501004F206420A4402EBC0022F
:10255000D5E73D2E05D87108F00748BF0131890243
:10256000EBE71348710940EA8121E6E73D2E0FD8D9
:102570007108F30748BF0131890211802A7834F8C5
:10258000223023F4804323F0700383F440536BE73D
:10259000074B710943EA8123BBE7012A01BFB4F865
:1025A000502004F20641891821F83060E6E700BFA8
:1025B0000080FFFF02F58062F0B510445D080C4614
:1025C0002E46471A3A19023436B9DB0744BF30F8B1
:1025D000153001F81530F0BD128804F8022C120AEB
:1025E00004F8012C013EEDE74FF47A73B0FBF3F0F1
:1025F000034B0022013858609A6005221A60704728
:1026000010E000E0014B1860704700BF2C00002074
:10261000144A936D43F0806393658369012B01BF76
:10262000A2F58632136843F4802313600E4BDA68F8
:10263000C2F30222C2F10701131D042928BF04219D
:10264000062B4FF0FF3303FA01F38CBF033A00224D
:10265000DB4393401B01054ADBB282F84333082376
:10266000936070470010024000ED00E000E100E0E0
:1026700000F58661D0F8700400F020B900EB41133A
:1026800010B5D3F83C22D0F870040C4600F043F9A2
:10269000012C04D12046BDE8104000F079BD10BDEA
:1026A00000EB4113D0F87004DA6B00F06AB9D0F88F
:1026B000700400F0ECB910B504460121D0F87004A4
:1026C00000F0E2F9D4F87004BDE8104000F0B5B9AC
:1026D00070477047364A536843F4806310B55360BF
:1026E0000446344A34480823C0E90023C0F8704443
:1026F00000230222C4F89802C0E90223C0E904239F
:10270000C0E906330362FEF77BFD18B1FE212B48BA
:10271000FEF72EFC002211461823D4F89802FFF78A
:1027200038F9582300228021D4F89802FFF731F9B4
:10273000982300220121D4F89802FFF72AF9D82320
:1027400000228121D4F89802FFF723F94FF48C730B
:1027500000220421D4F89802FFF71BF94FF4AC7360
:1027600000228621D4F89802FFF713F94FF4CC73B6
:1027700000228521D4F89802FFF70BF94FF4EC738F
:1027800000228321D4F89802FFF703F94FF406736F
:1027900000220221D4F89802FFF7FBF84FF41673D9
:1027A00000228221D4F89802FFF7F3F8002010BD30
:1027B0000070004000680040903C00200B3B000887
:1027C00008B5D0F89802FEF78DFD002008BD10B5C1
:1027D0001C46D0F8980213462246FEF7ACFD0020B6
:1027E00010BD08B5D0F89802FEF7D8FD002008BD4E
:1027F00008B5D0F89802FFF763F8002008BD08B5C7
:10280000D0F89802FFF795F8002008BD0A06D0F826
:10281000983245BF01F07F0103EB411303EB4113F5
:1028200093F82A0058BF93F82A02704708B5D0F8E9
:102830009802FEF76CFD002008BD08B5D0F898029C
:10284000FEF7EEFD002008BD08B5D0F89802FEF7AF
:10285000CEFD002008BD08B580B1D0F88C3213B190
:102860000023C0F88C3209B1C0F88812012380F827
:1028700074320270FFF72EFF002008BD0220FCE733
:1028800019B1C0F88C12002070470220704708B5BB
:10289000FFF796FF002008BD08B5D0F88C320BB9C1
:1028A000022008BD1B6898470028FAD0F8E708B551
:1028B000D0F88C325B689847002008BD38B50446D4
:1028C00000F52075284600F0F6FA012394F88012EE
:1028D000C4F86C32B4F88632C4F8703201F01F03C9
:1028E000012B0ED03BB1022B10D001F0800120460D
:1028F000FFF77EFF03E02946204600F013F9002091
:1029000038BD2946204600F029FAF8E72946204636
:1029100000F049FAF3E770B50546164629BBD0F832
:102920006C32032B1CD1D0E9533293420BD99B1A42
:102930009A42C0F84C318CBF9AB292B2314600F044
:10294000C7F8002070BDD0F88C321B6923B190F815
:102950007422032A00D19847284600F0C1F8F0E716
:10296000052BEED1FFF744FFEBE7D0F88C329B69E3
:102970002BB190F87422032A01D19847E1E7022095
:10298000E0E770B5134604460E46002948D1D0F85A
:102990006C22022A3DD1D0E90852954214D9AA1AD4
:1029A0000262194692B200F08BF833461A46194675
:1029B0002046FFF749FF94F87832012B4FF00000D2
:1029C00001D184F8780270BDC369B3FBF2F502FB54
:1029D000153565B99A420AD8D0F87022934206D2CA
:1029E0002A4600F06DF8C4F870522B46DEE7D4F8A2
:1029F0008C32DB682BB194F87422032A01D1204673
:102A0000984780212046FFF7F3FE204600F073F838
:102A1000D1E732F00403CED18021FFF7E9FECAE707
:102A2000D0F88C325B6933B190F87422032A02D15A
:102A300098470020C7E70220C5E770B5002204468A
:102A40001146012540264023FFF7C1FE3346802171
:102A5000C4F84451C4F8506100222046FFF7B7FE85
:102A6000D4F89032A5610021666284F87452C4F8EB
:102A70006C126160C4F87C1223B1D4F88C32204609
:102A80005B689847002070BD01740020704708B54E
:102A900090F87422032A04D1D0F88C32DB6903B198
:102AA0009847002008BD10B513460222C0F86C22DA
:102AB000C0E907330A460021FFF7BFFE002010BD22
:102AC00008B513460A460021FFF7B7FE002008BDEF
:102AD00008B513460A460021FFF7B6FE002008BDE0
:102AE00008B50423C0F86C3200231A461946FFF7D4
:102AF000A4FE002008BD08B50523C0F86C320023F1
:102B00001A461946FFF7A0FE002008BD10B5802127
:102B10000446FFF76DFE20460021BDE81040FFF798
:102B200067BE000037B50B7803F06003202B044626
:102B30000D4614D0402B12D0002B40F08E804B78E5
:102B4000092B00F28A80DFE813F0E300FC00880024
:102B5000F50088007D0013008800CE009B00D4F8AB
:102B60008C3229469B6820469847002003B030BD30
:102B70004B881A0A013A062A6FD8DFE802F00416D9
:102B8000236E6E434C00D0F888321B68207C0DF118
:102B900006019847BDF80620002A4FD0EB88002B8D
:102BA00043D12046FFF79CFFDFE7027CD0F88C3250
:102BB00032B99B6A0DF10600984702234370E9E79A
:102BC000DB6AF7E7DBB2052B47D8DFE803F0030742
:102BD0000B0F1317D0F888325B68D7E7D0F888322C
:102BE0009B68D3E7D0F88832DB68CFE7D0F888322B
:102BF0001B69CBE7D0F888325B69C7E7D0F8883229
:102C00009B69C3E7037C43BBD0F88C320DF106000F
:102C10005B6B9847BEE7037CFBB9D0F88C320DF1B3
:102C200006001B6B98470723C8E79A4228BF1A463D
:102C300001462046ADF80620FFF735FFEB88002B54
:102C400093D1AEE78B8843B9CB8833B94D887F2DBC
:102C500003D890F87432032B03D12046FFF756FFB8
:102C600083E7E9B280F87612FFF7E0FD2046FFF730
:102C700037FF1DB1022384F8743276E70123FAE7A7
:102C80008978354D01292970E7D890F87432022BE4
:102C900008D0032B15D0FFF739FF29782046FFF71E
:102CA00006FE62E700293FF47CAF01210323416067
:102CB00080F874322046FFF7EFFD02287FF471AFF1
:102CC000CBE731B9022380F874324160FFF7EFFDA2
:102CD00067E7416801293FF464AFC9B2FFF7E7FD38
:102CE00029786160E6E7CA88012AB6D190F8743283
:102CF000002BB2D0022B03D9032BAED1011D03E070
:102D00000146002341F8083F2046FFF7CCFE2CE7A0
:102D100090F87432013B022B9FD8CA88022A9CD1BA
:102D2000D0F87C320146002B14BF1346002341F833
:102D30000C3FE9E74B88012B7FF417AFC4F87C32D6
:102D40002FE790F87432013B022B86D84B88012B79
:102D50007FF40BAF0023F1E7811A002038B50B7820
:102D600003F06003202B04460D4602D0402B00D018
:102D7000ABB994F87432013B022B10D82B79012B9C
:102D80000DD8D4F88C3229469B6820469847EB88AA
:102D90001BB910B92046FFF7A3FE002038BD20461E
:102DA000FFF7B4FEF9E738B50A7802F06002202A8E
:102DB00004460B4615D0402A13D072B95A788D8834
:102DC000012AE9B221D0002A36D0032A05D190F891
:102DD0007422022A27D0032A0BD02046FFF796FE42
:102DE00005E0D4F88C2219469268204690470020CE
:102DF00038BD5A882AB94A0603D0DB880BB9FFF7D9
:102E0000F7FC2046FFF76CFEF1E790F87422022AE7
:102E100009D0032AE1D15B88002BE8D14D06F0D020
:102E2000FFF7EDFCEDE74B06D7D0FFF7E1FC802183
:102E30002046FFF7DDFCDAE790F87432022B18D059
:102E4000032BCAD101F00F02142315F0800F03FBEE
:102E500002021DD09269002ABFD001F07F0505FB58
:102E60000335054411F07F031DD12B600222294652
:102E70000AE04A06B1D12B064CBF00F1140100F55F
:102E8000A07100230B6002222046FFF70CFEAEE784
:102E9000D2F84421002AA0D001F07F0503FB0505EC
:102EA00005F5A075DEE72046FFF7B0FC08B1012369
:102EB000DBE72860DAE70B7803704B784370CA7859
:102EC0008B7803EB022343804A790B7903EB0223CF
:102ED0008380CA798B7903EB0223C380704710B5D6
:102EE00080210446FFF784FC20460021BDE8104005
:102EF000FFF77EBC30B588B1042A0FD90022013813
:102F0000551C445D5CB9D2B2013252001A800323D1
:102F10004B700A70022310F8015F15B930BD2A46C4
:102F2000EEE75A1CD2B2CD540233DBB28C54F2E736
:102F300012230B8000487047203B000804230B80BD
:102F400000487047623B000810B5044C04480B462B
:102F500030222146FFF7CEFF204610BD044100205D
:102F60003B3B000810B5044C04480B463022214678
:102F7000FFF7C0FF204610BD04410020323B00088F
:102F800070B5254A8CB00B4607AC02F110061068EC
:102F90005168254603C50832B2422C46F7D1127853
:102FA0002A701E491E4C00228DF81820C87A8DF810
:102FB00004001C480078247820448DF80500487AE5
:102FC0008DF80600184800780C7820448DF807002A
:102FD000C8798DF8080089798DF8091003AC01AD26
:102FE000204615F8011B0CAE06EB111601F00F017F
:102FF00016F8146C26700CAE3144013211F8141C12
:103000006170062A04F10204EBD130220749FFF770
:1030100071FF06480CB070BD513B00089075FF1F52
:103020009275FF1F9A75FF1F9875FF1F04410020BE
:103030002923038000487047C0000020D0F8903258
:1030400000201873704700000A230380004870476F
:10305000B400002013B50022ADF806200C78CA8811
:10306000D0F8903202F07F0214F06004CA801CD0C5
:10307000202C2DD14A78023A092A29D8DFE802F01B
:1030800012092828282828280E058A781A60002086
:1030900021E001221946FFF706FDF8E74A88120AE7
:1030A0005A60F4E70122191DF5E74C780B2C0FD874
:1030B000DFE804F0060E0E0E0E0E130E0E0E232B7E
:1030C00090F87432032B03D102220DF10601E2E7DE
:1030D000FFF705FF022002B010BD4B881B0A222B10
:1030E00004D1222A28BF22220B49D4E7212BEFD179
:1030F000092A28BF09220949CDE790F87422032A3A
:10310000E6D1012203F10801C5E790F87422032AF1
:10311000DED18A789A60BAE74C000020A80000202F
:1031200010B581210446FFF75CFB01212046FFF723
:1031300058FB0020E062C4F8580110BD10B54023D0
:10314000044603228121FFF742FB40230322012191
:103150002046FFF73CFB0121074BE162C4F8581100
:10316000C4F8903200241C73044A05484023FFF73A
:103170006BFB204610BD00BFC21A0020821A00203F
:10318000F4390020D0F89032002018737047000006
:1031900070B5094C40252046FDF7ECFE2A4600217B
:1031A000204600F0A3FC2B46224601210348BDE83F
:1031B0007040FFF749BB00BF821A0020F43900209D
:1031C0000C4B70B51C6841F2020604F58052A35BFB
:1031D00012880D465918914202DD012000F026FCAC
:1031E0002A460146E01800F067FCA35B1D44A55386
:1031F000002070BDD41A00202DE9F3410446184682
:103200001D460F46904600F005FC144826780560E0
:103210000546EEB942463946204600F0C7F884B26A
:103220003046FDF7FDFDB4F5104F13D1230A0121FF
:103230000DF107008DF80730FFF7C2FF01210DF1F6
:1032400007008DF80740FFF7BBFF02B0BDE8F08133
:103250004FF4DC44286800F0DDFBE7E7D41A0020D7
:1032600030B4027943798579120442EA03222A4371
:103270000B4630BCC11DFFF7BFBF0000014B1868F3
:1032800000F0C8BBD41A0020014B1860704700BF83
:10329000D41A002007B5084B18689A8800909B79CB
:1032A000ADF80420062168468DF80630FFF788FF48
:1032B000024803B05DF804FB663B00080090FFFF86
:1032C000172908B508DD04220449104400F0E6FB84
:1032D000B0FA80F0400908BD0020FCE76D3B000813
:1032E0002DE9F0431D4695B001238DF803302B786E
:1032F000103B4FF00008012B16468DF802804ED887
:103300004046FDF7E9F881464046FDF7E5F80746F7
:103310004046FDF7E1F804464046FDF7DDF83F0280
:10332000000E40EA096007F47F07240A384304F4DA
:103330007F442043019001210DF10300FFF740FF7E
:1033400004210DEB0100FFF73BFF01210DF102000D
:10335000FFF736FF29463046FCF7FEFF40B28DF8F6
:103360000200C0B1FFF78AFF01210DF10300FFF752
:1033700027FF04210DEB0100FFF722FF0021482267
:1033800002A800F0B3FB9DF802308DF80830482108
:1033900002A8FFF715FF044815B0BDE8F0834FF011
:1033A00020630193C7E700BF0090FFFF2DE9F041C4
:1033B0004378022B07460C461CD191F8405001F18E
:1033C000410630462946FFF77BFFBB78072B07D124
:1033D000002846F6851008BF4FF4D540BDE8F081BF
:1033E00078B133462A4604F120012046BDE8F04179
:1033F000FFF776BF032B07D14AB9BDE8F041FFF7CD
:1034000049BF4FF4D540E9E74FF4DA40E6E74FF41F
:10341000CE40E3E7094A30B50023182404FB03F14A
:103420008D58854203D10A440020107430BD013309
:10343000092BF3D14FF0FF30F8E700BFD81A002076
:10344000044A00231380044A1360044A1360044AA8
:1034500013607047823900208C3900209039002099
:1034600084390020044B188828B1044B1B6898420B
:103470000CBF022001207047823900208C390020C7
:103480000C4A38B511460023147C5CB9182253430A
:10349000CD18C85001232B74FDF748FCC5E9020480
:1034A000204638BD0133092B02F11802ECD14FF050
:1034B000FF30F6E7D81A002038B50C4C002218234C
:1034C00003FB02F52959814209D1FDF72FFC63194D
:1034D00000220121C3E902021974104638BD0132ED
:1034E000092AEDD14FF0FF30F8E700BFD81A0020CD
:1034F0002DE9F04704460F46164600254FF0040814
:103500004FF005094FF0070AB54201DBBDE8F0872F
:10351000D4E9032362B96268C4F81520C4F80C80AA
:10352000C3B9227862762289C4F80CA052BA6283A9
:10353000E068421CE2602044795D41750133402A15
:10354000236105D104F11500FDF7E6FC0023E360DB
:103550000135D9E7227D6276511C2175C4F80C90A3
:10356000E6E710B50446E1B9C2685AB902694AB93A
:103570004268C0F8152002784276028952BA428326
:103580000722C260E06800280FDD1534C0F1400258
:103590000021204400F0AAFA2046BDE81040FDF7C3
:1035A000BBBCBDE81040FFF7A3BF10BD10B598B07D
:1035B00004468DF807105822002102A800F096FA60
:1035C000BF2301220DF1070102A88DF80830ADF8E4
:1035D00010200394FFF78CFF0022114602A8FFF78A
:1035E000C0FF18B010BDFFF72BBF00002DE9F04D54
:1035F000DFF85C80154D002440F2ED2A4FF0000BFF
:1036000098F81030D3B1FDF791FBD8E902320021D0
:10361000C61A61EB0207BB4508BFB2450ED20521B1
:10362000D8F80000FFF7C2FF002388F81030D8F860
:1036300000202B689A4201D1FFF702FF01340A2CC7
:1036400008F11808DCD1BDE8F08D00BF84390020F6
:10365000D81A002000B599B058228DF80700002133
:1036600002A800F043FA0B4B1B6803930122BB2313
:103670000DF1070102A88DF80830ADF81020FFF712
:1036800037FF0022114602A8FFF76BFF19B05DF863
:1036900004FB00BF84390020F7B5144606460846EF
:1036A0000D4600F0B7F92378D12B24D0E12B27D099
:1036B000D02B37D12846FFF7E7FD304641F202060E
:1036C0001949FCF749FEAB5B8DF8070001332381F4
:1036D00001220DF107012046FFF70AFFAA5B2946E8
:1036E0002046FFF73EFF002220461146FFF739FF34
:1036F000012003B0F0BDFDF723FC00222281F3E797
:10370000094D04272781032300262B706E70AE70AD
:10371000FDF7D2FB3A46E87029462046FFF7E8FE5F
:103720003246E1E70020E4E7C81B00202DE9F04322
:1037300002790768ADF5815D862A81B004465BD1C8
:10374000B0F80530B3F5006F03D00025032403263D
:10375000CBE0002F00F0E480FFF745FF0668701C07
:1037600012D1A24B1D6801356A1E033205F1010119
:1037700008D828461D60FFF783FE013014D10025CC
:103780000624E4E70D46EFE7994A0023182101FBE0
:1037900003F08058864200F011810133092BF6D1E5
:1037A0003046FFF76DFE0CE15822002107A800F01B
:1037B0009DF954F8070F0896862361688DF81C3030
:1037C00002AB019303C3019B01999D600223112267
:1037D000CB6007A805230B74ADF82420FFF788FE03
:1037E000002207A81146FFF7BCFE2846FFF712FE8D
:1037F00000252C46042678E0791C00F091807C4955
:10380000002318200D4600FB03F67658B7420AD075
:103810000133092BF7D1130605D5FFF723FE10B9A5
:103820003846FFF72DFE21680023182202FB03F023
:103830002858814200F0C7800133092BF6D194F952
:103840000430002BD4DA9AE7002B22DAB4F80530E2
:103850005BBA9AB241F6B955AA423FF676AF654DCA
:103860002B80654B1860654B65481960392A654B9C
:1038700028BF39221A60644B4FF0FF311960E11DF7
:1038800000F01AF92068FFF717FE38B3012000F0A6
:10389000CDF8002DADD0594B1B689942A8D1554B9E
:1038A000594AB3F800801368564E01338342356895
:1038B000136040F09880A8EB050251483B2A284449
:1038C00004F1050104DC00F0F7F8C6F80080D9E740
:1038D0003B223B3500F0F0F83560D3E7454B1D88BF
:1038E000454B1C78FFF7BEFD0646DFF824815822C1
:1038F0000021404600F0FAF8042EC8F8047088F859
:10390000004014D0032E0ED13846FFF783FD042C5F
:1039100001D1FFF795FD21463846FFF747FE06E047
:1039200000250B2413E7012E03D1FDF7FFF9002436
:103930002FE0862CAAD0912C37D0832C2FD10DB913
:103940000321E9E7314E35780DB10621E4E7012383
:1039500007A80DF12009337000F05CF807A928488A
:10396000FFF77EFCB9F8FE2FA8F8082007A940460B
:10397000FFF7BEFD2A4629464046FFF7F2FD3570A7
:103980003846FFF747FDFFF75BFD204B1B78002B08
:10399000CDD120460DF5815D01B0BDE8F0834246F2
:1039A00007A92846FFF778FE18B1184B00221A70B5
:1039B000E6E701213846FFF7F9FDE1E73046FFF77A
:1039C0007BFD3546D9E6FFF74DFD05462079012DF3
:1039D00043B27FF439AF094A126891427FF431AFA4
:1039E000002BBFF658AF00250424B0E6EC00002001
:1039F000D81A00208239002088390020843900201C
:103A0000C81B00208C3900209039002094390020F8
:103A10009839002008B541F20402002100F066F850
:103A200000F580534FF480521A8008BD08B5074B4B
:103A3000044613B10021AFF30080054B1868836A78
:103A400003B19847204600F059F800BF000000007D
:103A5000743B000870B50D4D0D4C641BA41000267E
:103A6000A64209D10B4D0C4C00F0B6F8641BA41013
:103A70000026A64205D170BD55F8043B9847013693
:103A8000EEE755F8043B98470136F2E700000000E6
:103A900000000000000000000000000030B5013907
:103AA0000024A24201D1002005E0035D01340D5D38
:103AB000AB42F6D0581B30BD884210B501EB020373
:103AC00002D983421C4607D8421E994208D011F8F9
:103AD000014B02F8014FF8E783189A1A9A4200D175
:103AE00010BD14F8011D03F8011DF7E70244034659
:103AF000934200D1704703F8011BF9E7FEE700BFCE
:103B00007372632F696E69742E63006C69622F751E
:103B10007362642F757362645F636F6E662E6300F9
:103B200012010002000000408304CAA20001010249
:103B30000301536F6C6F4B65797300536F6C6F208B
:103B4000426F6F746C6F6164657220332E302E305B
:103B50000030313233343536373839414243444509
:103B60004600040309045532465F5632008C279004
:103B7000F6000000F000002000000000000000003F
:103B80000000000000000000000000000000000035
:103B90000000000000000000000000000000000025
:103BA0000000000000000000000000000000000015
:103BB0000000000000000000000000000000000005
:103BC00000000000000000000000000000000000F5
:103BD0000000000000000000F8B500BFF8BC08BC01
:083BE0009E4670470000000042
:043BE800F8B500BF6D
:103BEC00E803000013000000005065737F89919971
:103BFC009FA6ACB1B6BBC0C4C8CDD0D4D8DBDFE275
:103C0C00E5E8EBEEF1F50000F70C000800093D00CB
:103C1C00312F00083D2F0008652F0008492F0008A0
:103C2C00812F0008000000000000000006D0F10900
:103C3C0001A1010920150026FF007508954081029D
:103C4C000921150026FF00750895409102C000005F
:103C5C003D310008213100085530000800000000FB
:103C6C00000000003D300008853100080000000015
:103C7C000000000000000000313000083130000866
:103C8C0031300008493000080921110000012222BE
:103C9C00000000000A0600020000004001000000C5
:103CAC00090229000101008032090400000203000E
:103CBC0000020921110100012222000705810340A5
:103CCC00000507050103400005000000010000008D
:103CDC0000000000983B0008B83B0008783B000847
:103CEC0000000000000000000000000000000000C8
:103CFC0000000000000000000000000000000000B8
:103D0C0000000000000000000000000000000000A7
:103D1C000000000000000000000000000000000097
:103D2C000000000000000000000000000000000087
:020000040803EF
:046008000300000091
:040000050800116975
:00000001FF
