:020000040800F2
:1050000000C000202981000879810008798100080A
:10501000798100087981000879810008000000008A
:10502000000000000000000000000000798100087E
:10503000798100080000000079810008798100086A
:105040007981000879810008798100087981000858
:105050007981000879810008E15C00087981000805
:105060007981000879810008798100087981000838
:105070007981000879810008798100087981000828
:105080007981000879810008798100087981000818
:105090007981000879810008798100087981000808
:1050A00079810008798100087981000879810008F8
:1050B00079810008000000000000000079810008EC
:1050C00079810008000000000000000079810008DC
:1050D00000000000798100087981000800000000CC
:1050E00079810008798100080000000000000000BC
:1050F00000000000000000000000000000000000B0
:10510000000000000000000000000000798100089D
:105110000000000000000000255D00087981000803
:105120007981000879810008798100087981000877
:10513000798100080000000000000000000000006D
:10514000798100087981000879810008BD5C000838
:105150007981000879810008798100087981000847
:105160007981000879810008798100080000000039
:10517000798100087981000800000000000000002B
:105180007981000879810008798100080000000019
:10519000024BD868C0F30220704700BF00ED00E06A
:1051A000034AD2F8943043F00103C2F894307047B8
:1051B00000100240024BD3F89400C0F34000704747
:1051C00000100240024A136843F001031360704765
:1051D00000100240024B1868C0F34000704700BF47
:1051E00000100240024A136843F00803136070473E
:1051F00000100240034A136823F0F00318431060C4
:10520000704700BF00100240034A936823F0030375
:1052100018439060704700BF00100240034A936833
:1052200023F4605318439060704700BF00100240A1
:10523000044AD2F8883023F040631843C2F888004B
:10524000704700BF00100240034A136823F00703B1
:1052500018431060704700BF00200240034A1368E3
:1052600023F4C06318431060704700BF0070004013
:10527000054AD16C0143D164D36C82B003400193E1
:10528000019B02B0704700BF00100240054A916DBB
:1052900001439165936D82B003400193019B02B07D
:1052A000704700BF00100240054A116E01431166AD
:1052B000136E82B003400193019B02B0704700BFA0
:1052C00000100240024A136843F004031360704761
:1052D00010E000E0024A536823F47F4353607047B4
:1052E0000010024000207047034AD2F8883023F0B3
:1052F0000303C2F88830704700100240024A9368E6
:1053000023F4E0639360704700100240024A936800
:1053100023F0F003936070470010024038B5444C0E
:10532000A36D43F08053A3650220FFF78DFF414B2F
:105330001B6803F00703022B03D0AA213E4801F0AB
:10534000A1F94FF40070FFF789FFD4F8983043F0CB
:105350000103C4F89830D4F898309B07FBD5FFF7C9
:105360001FFFFFF727FF0128FBD1FFF72BFFFFF7F8
:1053700031FF0128FBD1FFF735FFB020FFF73AFFDF
:10538000FFF7A8FF0020FFF73FFFA56815F00C0509
:10539000FBD1FFF7BBFFFFF7B1FF4FF46050FFF702
:1053A0003DFF264804F02EFAFFF78CFF234804F057
:1053B00037FAFFF799FF2846FFF73AFF4FF0807062
:1053C000FFF764FFA36B43F08073A363A36B23F029
:1053D0008073A3631A4B5A6822F0E0625A605A68DD
:1053E00022F000425A605A6822F0405242F00052C5
:1053F0005A605A68120C120442F43B4242F07F0297
:105400005A605A6822F47F0242F408125A601A68FD
:1054100022F47C5242F400521A60FFF7B9FEFFF703
:1054200061FF084B0001C0B283F8230038BD00BF04
:105430000010024000200240207C0108006CDC02C9
:105440000060004000ED00E028498B6D43F0805380
:1054500010B54FF480608B65FFF700FFFFF7A0FEEB
:10546000FFF7A8FE0128FBD1FFF7ACFEFFF7B2FE65
:105470000128FBD1FFF7B6FE8020FFF7BBFEFFF748
:1054800029FF0020FFF7C0FE8C6814F00C04FBD14C
:10549000FFF73CFFFFF732FF4FF44050FFF7BEFE2F
:1054A000134804F0AFF9FFF70DFF114804F0B8F905
:1054B000FFF71AFF4FF04060FFF7BAFEFFF768FEF4
:1054C000FFF710FF0B4B0001C0B283F8230020460A
:1054D000FFF7BAFE084B1B685B0706D040F2A91124
:1054E0000648BDE8104001F0CDB810BD00100240E4
:1054F0000024F40000ED00E000200240207C0108C0
:1055000010B5284CA36D43F08053A3650120FFF72D
:105510009BFE254B1B6803F00703012B04D040F2D0
:10552000B911224801F0AEF84FF48060FFF796FE03
:10553000FFF736FEFFF73EFE0128FBD1FFF742FEE4
:10554000FFF748FE0128FBD1FFF74CFE9020FFF744
:1055500051FEFFF7BFFE0020FFF756FEA36813F0D1
:105560000C0FFBD1FFF7D2FEFFF7C8FE4FF44050FF
:10557000FFF754FE0E4804F045F9FFF7A3FE0C4870
:1055800004F04EF9FFF7B0FE4FF04060FFF750FE19
:10559000FFF7FEFDFFF7A6FE064B0001C0B283F841
:1055A000230010BD0010024000200240207C0108B2
:1055B00000366E0100ED00E0012805D010B1022890
:1055C00004D07047FFF740BFFFF79ABFFFF7A6BEB2
:1055D000164A17495368174843F4806310B553605F
:1055E00002F5D032144C936D43F080639365134AF7
:1055F00004F084FC124B13490120002218618861D9
:1056000002204A60986088600F495A60204604F082
:10561000A8FD0E49204604F0B9FD20460C4904F0CF
:1056200045FB2046BDE8104004F0B7BD00700040C7
:105630000002002084010020A44A0020480000202D
:105640001056002050560020440100200001002088
:1056500080000020F0B54FF0804495B00025012077
:10566000FFF714FE4FF47A77256101A92046CDE9B2
:105670000375ADF80450029503F076FB236843F000
:1056800080032360A36823F4A03323F007030126DB
:10569000A3600CAA602310212046CDE90C36CDE989
:1056A0000E67109503F09AFBA369214F23F48063E2
:1056B000A3610CAA4FF480712046CDE90D6603F07A
:1056C0008DFB7B6823F004037B600CAA4FF48051B0
:1056D0002046CDE90D6603F081FB7B6823F48063EF
:1056E0007B60A36823F00803A360A36823F48043CE
:1056F000A360A36823F43F43A360636823F07003AF
:105700006360A36823F08003A3600E22022306A92E
:105710004FF09040CDE90623CDE90855CDE90A5672
:1057200003F05BF923683343236015B0F0BD00BF7D
:105730001800004030B51A4C8FB04FF48040FFF78E
:10574000B3FD204604F072F8C02202230025CDE903
:1057500001230323CDE9033501A90723114806934B
:10576000059503F03AF94FF4E133CDE9073507A980
:105770000C232046CDE90B35CDE909550D9504F0F4
:1057800079F8636823F490436360A36823F02A03E5
:10579000A360236843F0010323600FB030BD00BF56
:1057A000003801400004004830B5012085B04FF0BA
:1057B0009044FFF75DFD0220FFF75AFD22680123A8
:1057C00093FAA3F1B1FA81F19940032505FA01F1A9
:1057D00022EA010193FAA3F22160E16893FAA3F0AF
:1057E000B0FA80F093FAA3F29840B2FA82F205FA86
:1057F00000F09A4021EA000103FA02F20A430C4940
:10580000E2608A680F2022F00F0290FAA0F08A600E
:1058100001A8002201930292ADF80C308DF80E30F1
:1058200004F0A4F8034B40221A6005B030BD00BF5D
:105830000000014000E100E030B5044687B01020D0
:10584000FFF724FD45F6C0534BF68030002C18BFFF
:105850001846134CADF8040000255A2301A9204630
:10586000CDE9025303F080FA236823F0800323601C
:10587000636823F070036360A36823F08003A36070
:10588000E36843F00103E360236843F0010323600E
:10589000256162B6034B4FF480025A6007B030BDF9
:1058A0000010004000E100E008B54FF48020FFF751
:1058B000DFFC034A136843F00403136008BD00BF14
:1058C0000008065010B54FF4805090B0FFF7ECFC84
:1058D000E02202230024CDE900230323CDE9023492
:1058E000694605234FF090400494059303F075F842
:1058F0004FF482714FF4E063CDE9071301204FF4B8
:105900000073CDE90A031023CDE90C340694099401
:105910000E94064C072306A920460F9303F0F8FFC8
:10592000636823F01003636010B010BD00300140C5
:1059300010B504460120FFF7B7FC4FF08050FFF789
:10594000A5FC2E4AD36823F4E0631B041B0C43F030
:10595000BF6343F40133D360FFF71AFCFFF7C2FCC7
:105960000001C0B21076FFF713FCFFF7BBFC00018B
:10597000C0B25076FFF70CFCFFF7B4FC0001C0B2D8
:105980009076FFF705FCFFF7ADFC0001C0B2D077C1
:10599000FFF7FEFBFFF7A6FC0001C0B282F8200073
:1059A000FFF7F6FBFFF79EFC0001C0B282F8220071
:1059B000FFF7EEFBFFF796FC0001C0B282F8230070
:1059C000FFF7F2FEA4B14FF48060FFF747FCFFF74A
:1059D0003BFD4FF48060FFF741FC2046FFF72CFFB2
:1059E000FFF7A8FEFFF760FFBDE81040FFF76ABFB2
:1059F000FFF794FCFFF72EFEEFE700BF00ED00E09D
:105A000008B5084691B204F0ABF9002008BD0000CB
:105A1000044B5A69002ABFBF034A9A6002F18832D8
:105A20009A607047002002402301674508B50028AE
:105A30002AD100F02DFA154B154A00280CBF184644
:105A4000104614490B6A20F0E06083421BD072B606
:105A50000B69DA03FCD4FFF7DBFF4B695B0041BF46
:105A60000D4BCB6003F14433CB600A4B18625A698B
:105A700042F400325A611A69D203FCD45A6942F0E6
:105A800000425A6162B608BD0448DAE7AAF8FFFF8F
:105A9000CCF8FFFF002002403B2A1908AAF8FFF7C4
:105AA00007B572B617490B69DB03FCD4FFF7B0FFEB
:105AB0000B690B614A6922F4FF6222F007024A6116
:105AC0004B6943EAC00343F002034B614B6943F463
:105AD00080334B610B4B1A69D103FCD41A699207CE
:105AE00007D51B6900936222074B0849084805F057
:105AF00063FC044A536923F00703536162B603B0A1
:105B00005DF804FB002002402B7C0108467C010864
:105B10001000008037B572B612490C460D69ED03CE
:105B2000FCD40D690D614D6945F001054D610260C0
:105B300043602369DA03FCD423699B0707D52369F3
:105B400000937B22084B0949094805F035FC054BB9
:105B500001221A615A6922F001025A6162B603B049
:105B600030BD00BF00200240527C0108467C010885
:105B7000100000802DE9F3411546164A1369DB0336
:105B8000FCD4FFF745FF20F007002C4646194F19BB
:105B90002B1B9D42A6EB040802D802B0BDE8F081A1
:105BA000082C2246A7EB040128BF0822684610F003
:105BB000DBFD072C06D8C4F10802FF210DEB040021
:105BC00010F0ECFDDDE900234046FFF7A3FF083CA1
:105BD000DEE700BF00200240F0B5164A6FF0030672
:105BE000031D361A85B00844F418A14201D805B047
:105BF000F0BD5468E407FCD594680394546814F02D
:105C0000660F0AD0536800930B480C4B0C491E22B8
:105C100005F0D2FB012010F041FD03AD1C1F8442B2
:105C2000E5D015F8017B04F8017B9C42F7D10433E1
:105C3000DAE700BF00080650100000806F7C010802
:105C4000827C01081D2893BF024B00EB80004000BE
:105C5000185C704700000020014610B5C0F30740F3
:105C6000FFF7F0FF0246C1F30720FFF7EBFF044602
:105C7000C8B2FFF7E7FF642358434FF080415A430F
:105C8000000A6343C0F57A701B0A8863C3F57A7310
:105C90004FF4C060B2FBF0F2C2F57A72CA630B64D3
:105CA00010BD4FF090431869C04300F001007047E9
:105CB000014B1870704700BF78030020014802F0C4
:105CC000ADBB00BF90560020034B044A5B6A1268CC
:105CD0005A2000FB0230704700100040640300208F
:105CE00008B50B4B5A695A610A4B1A680A4B9A421B
:105CF0000DD1FFF7E9FF09490A68801A192803D96D
:105D0000FFF7E2FF064B1860FFF7DEFF086008BDF3
:105D10000004014020000020A35C00086C03002068
:105D20007003002038B5204B00221A611F4A136807
:105D300001331360FFF7C8FF1D4B1B68C01A5A28B8
:105D400005D91C4B186810B140B205F0BFFC1A4BC6
:105D50001A681A4B9A421CD1002002F089F900BB44
:105D6000012002F085F9051C18BF0125144CFFF72E
:105D7000ABFF2268801A19280BD912490A7822B978
:105D80001DB1FFF7A1FF104B1860FFF79DFF2060CA
:105D90000D700E4B1B68012B05D1BDE8384000F09B
:105DA000E1BF0125E2E738BD001000406403002098
:105DB000740300206803002020000020135E000808
:105DC0006C030020BA030020700300206003002051
:105DD00038B5044672B6FFF777FF064B186062B617
:105DE000054D2CB12B68A34202D060B205F06EFCC9
:105DF0002C6038BD740300206803002010B50146F4
:105E0000FFF762FF0446FFF75FFF001B8842FAD3EB
:105E100010BD08B5002002F02BF968B15F20FFF734
:105E2000EDFF002002F024F960B9012002F020F912
:105E3000003018BF012004E0012002F019F9002809
:105E4000ECD108BD0120FCE7BFF34F8F0549064B9D
:105E5000CA6802F4E0621343CB60BFF34F8F00BF08
:105E6000FDE700BF00ED00E00400FA0510B502F008
:105E700015F9044C20B102F09DF8034B236010BDCE
:105E8000024BFBE720000020135E0008A35C000823
:105E9000044BD3E90802044B9A420CBFC0F3400004
:105EA0000020704700880308781E55AA014B186827
:105EB000704700BF60030020024B1B780BB9FFF74F
:105EC00087BB7047B9030020F0B5012091B0FFF700
:105ED0002FFD02F0E3F84C4C10B901F085FE206074
:105EE00025684A4C012D65D10022494B11464FF4DB
:105EF000002005F061FA474B474A25701A60FFF70A
:105F0000DBFF05F0A3FB07F029FD444B5A6A444B25
:105F10009A424AD000221146424B4FF4806005F06D
:105F20004BFA414B3D491B6ADBB2AA2B4FF02002D2
:105F3000684619BF30A7D7E9006731A7D7E90067DE
:105F400010F012FC7120FFF7ABFD202269463348A8
:105F5000FFF710FE354B08AA03F1200C1546186810
:105F60005968144603C4083363452246F7D12022FA
:105F70006946284610F0DCFB024650BB01462C4B1C
:105F80004FF4007005F018FA2A4B2B481C880023A8
:105F90002246FFF7BFFD294922462948FFF7EAFDBF
:105FA00032463B462748FFF7B5FD0020FFF73EFD90
:105FB00011B0F0BD0022244B11464FF4002005F033
:105FC000FBF90020FFF7B4FC00232370FFF74EFF1E
:105FD00095E7002211461D4B4FF4007005F0ECF9D7
:105FE0001B4B15481C8800232246FFF793FD2246D1
:105FF0001849D2E7AFF3008002000000781E55AACE
:1060000000000000781E55AA60030020B90300209C
:10601000907E010820000020A35C0008008803088F
:10602000781E55AAA97E0108002002408C7C010838
:10603000E77E01089E82010828880308B07F0108D6
:1060400030880308208803089B7E0108037F01082D
:1060500086850108A082010810B5044600F068FB9F
:1060600080B1204600F044FB00221146064B4FF45D
:10607000803005F0A1F94FF480304022214605F030
:10608000E5F9402010BD00BF297F010808B5402276
:1060900000210C4810F082FB0A48FFF7DDFF0028C2
:1060A00001DC002008BD074805F092FB9128F8D1DB
:1060B00000224FF40070044B114605F07DF94FF0BB
:1060C000FF30EFE7790300201F7F010838B5044651
:1060D000FFF7FAFD084D0444FFF7F6FD844209D3AB
:1060E0000120FFF78BFEFFF7D1FF20B92B689847FF
:1060F0000028F1D1002038BD20000020002210B57A
:10610000114604460C4B4FF4803005F055F94022FF
:1061100021464FF4803005F099F9084A138803F0BE
:106120003003302BFAD02246402381210448BDE8B9
:10613000104004F002B800BF2D7F01080468004041
:10614000A44A0020FFF7DABF034B0A221A60034B70
:1061500000221A60704700BFC4030020C80300205B
:1061600038B5204B204C1B689847204A216813689B
:1061700039B3013B9D1E0C2D136007D9B1FA81F193
:1061800049090F2B21601ED90F231360184C236877
:10619000EBB1FFF799FD17490B68C01A78280FD9A2
:1061A000FFF792FD144B08601868421C10F00100C4
:1061B00018BF70201A60FFF74FFD2368013B236072
:1061C00038BD0133D6E7002BE0D10123DDE71368AA
:1061D000DA0020B11046BDE83840FFF73DBDD802D7
:1061E000F9E700BF20000020C003002024000020A9
:1061F000C4030020C8030020CC030020D0220149A2
:1062000010F0B2BA00F80308D022014910F0ACBA7D
:1062100000F003081FB510220649684610F0A4FAE2
:106220009DF80000A0F1A5035842584105B05DF863
:1062300004FB00BF00F0030810B5044649B97F20F5
:10624000FFF72EFC0648D0222146BDE81040FFF79C
:1062500091BC7E20FFF724FCD02221460148F4E7C0
:1062600000F8030800F003082DE9F0435C4C2368B4
:106270000546581C89B052D006930023079345B9B0
:1062800005A80121FFF7A8FC9DF8140000F00F00FD
:10629000451C544FDFF85081DFF850910024A600D0
:1062A00006F1006606F57A36079A3368591C0ED057
:1062B000934206D23B4640F21B224146484605F037
:1062C0007BF8023433680793B4F5007FE7D1DDE94A
:1062D000063078BB40F2272243490090CDE90134D3
:1062E0004248434B05F068F8069B1B0201337D20B2
:1062F0000793FFF7D5FB042207A93E48FFF73AFCB6
:10630000069B7C2001330693FFF7CAFB3448042226
:1063100006A9FFF72FFC079809B0BDE8F083012319
:106320007C200693FFF7BCFB042206A92046FFF75A
:1063300021FCA2E72844B3EB102F079013D2CDE93C
:10634000000340F2372228492B4B284805F034F847
:10635000079B7C201B0A0693FFF7A2FB042206A9D9
:106360001F48FFF707FCB4F5007F1DD1DDE90623C8
:10637000B2EB132F08D2CDE900321B491F4B1B484B
:1063800040F2412205F018F8079B1B0A01337C20DC
:106390000693FFF785FB042206A91148FFF7EAFBE5
:1063A0007D20FFF77DFB002404F1007000F57A40AA
:1063B0000422800007A9FFF7DDFB114B07981A683C
:1063C00090420BD1069B02940022CDE900031146B6
:1063D0000C4B4FF4806004F0EFFFFEE718609BE782
:1063E00000E00308BD7C0108D77C01081000008094
:1063F000E47C010800E80308467D0108937D01085C
:10640000BC030020DF7D0108024B1B680BB101F0CB
:106410007FBB704760030020F8B5214B1968012944
:10642000054638D01F4B1B78002B36D11E4C2368F5
:1064300023BB1E481E4EFFF70FFCFFF745FC2F182D
:10644000FFF742FC87420AD30120FFF7D7FCFFF792
:106450001DFE0146F8B9336898470028F0D0284659
:10646000FFF734FE0146B0B92368A3B1FFF72CFC57
:106470002368C01AB0F5FA6F0DD206E0FFF724FCCE
:106480002368C01AB0F5FA6FD3D22846FFF71EFE74
:106490000023236001210846F8BD0221FBE700BF6D
:1064A0006003002078030020700300202035FF00E7
:1064B0002000002008B5FFF78FFB012008BD000079
:1064C000002210B5074B11464FF4007004F074FF22
:1064D000722420460134E4B2FFF7E2FA7C2CF8D1B2
:1064E00010BD00BF427E0108322070472DE9F34104
:1064F0004FF4B47606FB00F4E70A07F580337233F5
:1065000004F4FF6404EBC3240022CDE90004054633
:1065100088460D4B11464FF4007004F04DFF092FD3
:1065200007D832464146204602B0BDE8F041FFF7A9
:1065300021BB0095054B0649064840F2153204F090
:106540003BFF02B0BDE8F081527E0108697E010880
:10655000D77C0108100000802DE9F3414FF4B47698
:1065600006FB00F4E70A07F58033723304F4FF6496
:1065700004EBC3240022CDE90004054688460D4BF8
:1065800011464FF4007004F017FF092F07D8324668
:106590002146404602B0BDE8F04110F0E5B8009554
:1065A000054B0649064840F2273204F005FF02B0C9
:1065B000BDE8F081177E0108697E0108D77C0108DB
:1065C000100000802DE9F0414FF4B477ADF6080DCE
:1065D00007FB00F60022009004468846F50A194B96
:1065E00011464FF4007004F0E7FE092D20D805F5A0
:1065F00080307230C4024FF40062214602A810F0CD
:10660000A5F802AB06F4FF603A464146184410F084
:106610009DF805F17200C0B2FFF742FA4FF4006234
:1066200002A92046FFF7A6FA0DF6080DBDE8F08195
:106630000094054B054906484FF44F7204F0BCFE28
:10664000F2E700BF2E7E0108697E0108D77C0108B1
:10665000100000800A4B4CF6CC421A6045F25552AD
:106660001A6000225A6040F6FF721A614FF4FA6213
:106670009A60DA685207FCD14AF6AA221A6070477B
:106680000030004007B5054BCDE900014FF45972C9
:106690000349044804F090FEFEE700BFAD7C01080A
:1066A000D77C010810000080F8B50E4D2E68632ECF
:1066B000014613DC0C4F0D483C68402200EB84106F
:1066C00010F052F80134632CC8BF002306F1010614
:1066D000D4BF3C603B602E600020F8BD4FF0FF301F
:1066E000FBE700BFD4030020D81C0020D803002003
:1066F00010B50C4C0C4B2168402203EB811110F0BB
:1067000033F80A4B1A68002A09DD21680131632930
:10671000C8BF0021013A21601A60002010BD4FF06F
:10672000FF30FBE7D0030020D8030020D403002073
:10673000014B1868704700BFD403002001480AF0DD
:1067400031B900BF481D002010B540220446014663
:10675000064810F009F8064A04F14003603453F883
:10676000041B42F8041BA342F9D110BDE81C002011
:10677000B81D00200A46014601480AF03FB900BF93
:10678000481D0020014601480AF056B9481D002066
:1067900030B591B004460D464022002168460FF006
:1067A000FDFF64B1012C22D0402D0AD91148124BB3
:1067B0001249882204F000FE01200FF06FFF104CF8
:1067C00020252A46214668460FF0C0FF6A4640232E
:1067D0001178013B81F0360102F8011BF8D1FFF777
:1067E000ADFF40216846FFF7C5FF11B030BD202541
:1067F000044CE6E710000080847F0108A37F0108B5
:10680000E81C0020B81D002070B5044690B010466A
:106810000D461646FFF7B6FF4022002168460FF0EE
:10682000BDFF64B1022C29D0402D0AD91548164B62
:106830001649AB2204F0C0FD01200FF02FFF144CCD
:1068400020252A46214668460FF080FF6A464023ED
:106850001178013B81F05C0102F8011BF8D1FFF7D0
:106860006DFF68464021FFF785FF20213046FFF786
:1068700081FF3046FFF786FF10B070BD2025054C24
:10688000DFE700BF10000080847F0108A37F0108BC
:10689000E81C0020B81D002008B504480CF0C4FF17
:1068A0000CF0C8FF024B186008BD00BFB5640008BB
:1068B000DC1C0020034B044A1A60044B20221A609F
:1068C000704700BFE41C002000880308E01C002083
:1068D00007B50B4B1B68009313460A46014609484F
:1068E00000680DF043FB40B90748084B0849D02227
:1068F00004F062FD01200FF0D1FE03B05DF804FB4F
:10690000DC1C0020E41C002010000080707F0108C7
:10691000A37F0108014B1A680DF098B9DC1C002018
:1069200008B5084B1A680CF089FF012809D0064801
:10693000064B074940F2311204F03EFD01200FF0F2
:10694000ADFE08BDDC1C002010000080317F010876
:10695000A37F010808B5084B1B680DF051F801280A
:1069600009D00648064B07494FF49D7204F024FDF8
:1069700001200FF093FE08BDDC1C002010000080F9
:106980004E7F0108A37F0108012810B50C4614BFF3
:106990000146084908480DF025FD10222146074808
:1069A0001CB9BDE810400FF0F9BEBDE810400FF073
:1069B000DBBE00BFB81D0020404D0020304E00203F
:1069C00001461022024809B90FF0E8BE0FF0CCBE14
:1069D000304E00200A46014601480DF02FBD00BF91
:1069E000404D00200A46014601480DF0FDBC00BFA5
:1069F000404D00202DE9F041069C884600210746C5
:106A00001546084622461E46FFF7C2FE4146384656
:106A1000FFF7B0FE28460C4D3146FFF7ABFE284687
:106A20002021FFF7A7FE002122460846FFF7ECFED3
:106A300005F120000021FFF7A7FF20462021BDE837
:106A4000F041FFF7CFBF00BFE81C002013B5054C95
:106A50000094FFF7CFFF044B1C60044B20221A6008
:106A600002B010BD281D0020E41C0020E01C002006
:106A700070B59AB002AE1C460023154600961A4621
:106A8000FFF7B8FF402200210AA80FF087FE0F4B46
:106A90000AA91A6830460DF0D9F80AAB12AA1E46A8
:106AA00003CE964228606960334605F10805F6D1A9
:106AB00023461AAD144603CCAC42186059602246F6
:106AC00003F10803F6D11AB070BD00BFDC1C002032
:106AD000014B188D704700BF0088030810F0040FA9
:106AE0000CBF01230223020748BF01331846704739
:106AF000034B00221A6020221A7001229A707047FC
:106B0000D81D002070B5114D2B7813F0020F0446EC
:106B10002E4605D00A2001F0A1F82870012070BD92
:106B2000FFF7D2F80444FFF7CFF8844201D80020E1
:106B3000F5E70A2001F092F810F0060F30704FF0E0
:106B40000100ECD1FFF75AF9EDE700BFEA2500207C
:106B50002DE9F0471F46002388B03B600646884673
:106B60009146FFF7B1F8224CDFF88CA00644FFF7FE
:106B7000ABF8864201D8002037E02578690704D4B5
:106B80000A2001F06BF8054620700C2001F066F831
:106B900050B16A0708D503060AD5002253461146AC
:106BA0004FF4002004F008FC0120FFF727F9DEE78E
:106BB00000F01F042146684601F080F800220D4BCA
:106BC00011464FF4801004F0F7FB224669464FF45B
:106BD000801004F03BFC4C452246A8BF4A463A6070
:106BE000694640460FF0B2FD012008B0BDE8F087CD
:106BF000EA250020297F0108AC85010838B50C463C
:106C00000546042001F0C6F8202C28BF2024214688
:106C1000284601F069F8082001F0BCF8002211466E
:106C2000064B4FF4801004F0C7FB224629464FF470
:106C30008010BDE8384004F009BC00BF2D7F01087A
:106C400070B58AB01E4600F00F038DF80830184B5F
:106C50001B788DF80930002314468DF80A30FFF7B1
:106C60003DFF05462CB121B102AB224618180FF0AA
:106C70006DFD63190AAAA11C13442944320AC9B242
:106C800002A803F8202C03F81F6CFFF7B7FF0120C0
:106C9000FFF738FF054638B9024601460094054B18
:106CA0004FF4002004F088FB28460AB070BD00BFF6
:106CB000E9250020F28B01081D2A01D8FFF7C0BF8B
:106CC0000020704700220B461146FFF7B9BF612331
:106CD000FF29037086BF0023437041707047000096
:106CE000034A00231370034A1370034A136070476A
:106CF000DD1D0020DC1D0020E01D002070B5164DBC
:106D00002C788AB034BB154E337863B9144B02210A
:106D10001B88ADF8083002A80124FFF76FFF34701C
:106D200020460AB070BD01AB202202A9FFF710FF78
:106D300010B901232B70F3E7019B022BF9D19DF8C9
:106D40000830F22BF5D19DF80930012BF1D13470C8
:106D50000446E5E70024E3E7DC1D0020DD1D0020FC
:106D60008885010838B5084D2C685CB1FEF7ACFF8A
:106D700004F59674844205D80A20FFF7BFFFFEF79A
:106D8000A3FF286038BD00BFE01D00201FB51C4BCD
:106D900000F00F0200095A702BD110221A7042F233
:106DA0000E23ADF80030C0238DF80230154B1A6861
:106DB000CDF803205A68CDF807200E211A899B7A56
:106DC000ADF80B2068468DF80D30FFF717FF0A204D
:106DD000FFF798FE024688B901460B4B4FF400209E
:106DE00004F0EAFA022000F0D5FF012005B05DF8BA
:106DF00004FB01280CBF18222022CFE70020F5E772
:106E0000D81D0020C4850108D085010830B589B09F
:106E100004461E220D460DF1020000210FF0BEFCBB
:106E20002046FFF75BFE0D4A9378B3FA83F35B09C4
:106E300093700B4B04F00F0444F0A0041B788DF802
:106E4000004001468DF801301DB944F010048DF862
:106E500000406846FFF7D2FE09B030BDD81D0020C3
:106E6000E92500202DE9F04F99B01446884600F03E
:106E70000F07FFF733FE1F2C0646DFF89C911DDC41
:106E800099F800501E2200210DF13E000FF086FC03
:106E90008DF83C708DF83D5044B1B8F1000F05D02D
:106EA0000FAB2246414698190FF050FC3119C9B278
:106EB0000FA8FFF7A3FE19B0BDE8F08FC0F12003C3
:106EC000002504930FABAA4603EB000B049A8DF840
:106ED0003C70631B9342A8BF134699F800208DF8BD
:106EE0003D2008EB05011A46584605938DF83EA053
:106EF0000FF02CFC059B1D44A542B8BF9DF83C201B
:106F000006EB0301B8BF42F01002C9B20FA8B8BF28
:106F10008DF83C20FFF772FE0520FFF7F3FD0246D7
:106F200038B901460095364B4FF4002004F044FA7E
:106F3000C1E79DF83C30DB065BD52022002107A885
:106F40000FF02CFC202206AB07A96420FFF700FEFF
:106F5000024640B9CDE900542A4B11464FF40020B7
:106F600004F02AFAA7E79DF81C3003F0E202A22AF7
:106F70000AD0CDE901540093234B002211464FF46F
:106F8000002004F019FA96E713F010010AD0184611
:106F90000121FFF73BFF9DF81C300093CDE9015420
:106FA0001A4BEAE718460593FFF798FD069A059BEA
:106FB00090420FD00092CDE901540A46144B4FF491
:106FC000002004F0F9F9069A07A94FF4002004F014
:106FD0003DFA70E79DF83C1083EA010212F00102CD
:106FE00007D103F0F600A22803D1CDE90013094B25
:106FF000B3E7A54287F00107FFF668AF5BE700BF84
:10700000108B0108288B0108448B0108758B01083F
:107010009E8B0108C68B0108E9250020F7B51A4CA4
:107020000D46194600232360184B0646FF2A4FF0F1
:107030000100187000DD31B12946304603B0BDE8CB
:10704000F040FFF70FBFFD27FD3A114B2260019280
:1070500000970A464FF4002004F0AEF93A4629465C
:107060000C480FF081FB21680B48FFF730FE3046DB
:10707000FF220849FFF7F6FE22680648E91903B027
:10708000BDE8F0400FF070BBE4250020E8250020AB
:10709000F98A0108E41D0020E11E002010B40C460E
:1070A0009C42114612DC127802F0F002A02A09D1AB
:1070B000042C0FDD9C422246A8BF1A465DF8044B03
:1070C0000FF036BB9C4205D12246F7E70A205DF857
:1070D000044B70470B20FAE738B5144A08230446DE
:1070E0000D46FFF7DBFF18B90520114BD87038BDEE
:1070F0000723104A29462046FFF7D0FF08B9012090
:10710000F3E702230C4A29462046FFF7C7FF08B9D8
:107110000320EAE70223094A29462046FFF7BEFF7B
:1071200008B90420E1E70020E1E700BF8A850108F3
:10713000D81D0020938501080E8C0108118C0108D0
:107140002DE9F0411378ADF5805D13F07F0584B033
:1071500006460F4614460BD0002200931146BF4B43
:107160004FF4002004F028F94FF4DC413046DAE116
:107170005378102B00F0D18122D8022B00F04681E9
:10718000032B00F0E180012B21D1B54BDB78052BDF
:1071900040F0DE80B34B2A4629464FF4002004F02D
:1071A0000BF9A388402B00F0ED8000932A46AE4BEC
:1071B00029464FF4002004F0FFF84FF4CE41D5E704
:1071C000B02B00F019820BD8A42B00F08580002290
:1071D00000931146A54B4FF4002004F0EDF8B7E002
:1071E000C02B1FD0EE2BF2D19288042A40F03E82B1
:1071F0009F49D4F806000FF09BFA0246002840F0A1
:1072000035829C4B01464FF4002004F0D5F84FF432
:1072100010413046FFF756FD1420FEF7EFFDFEF754
:1072200013FEFEE793780BB9D37863B146F6862157
:107230003046FFF747FD904B002211464FF40020E7
:1072400004F0BAF867E0D2F80A408C4F34F4807347
:107250003D680CD0AC420AD9FF2D9ABF05F5CE414E
:1072600089B24FF4CE41FFF72DFD854BE4E7FF22B5
:10727000002103A80FF092FA002C08BFFD24AC42B5
:1072800028BF2C46002211467E4B4FF40020CDE94A
:10729000004504F091F87C49224603A80FF056FA05
:1072A0003968A14216D003AB091B1819FFF70FFD6F
:1072B0000222224403A93046FFF7D4FD3A687248FF
:1072C000121B01193A600DF5805D04B0BDE8F04174
:1072D0000FF04ABA0022ECE79188D2F80600FFF7D7
:1072E000FBFE0528074608D14FF4104306226749E4
:1072F0003046FFF7E1FC664B9EE788B14FF4104142
:107300003046FFF7DFFC0097624B2A4629464FF4D0
:10731000002004F051F80DF5805D04B0BDE8F08167
:1073200046F682213046FFF7CDFC3A4639465A4BA5
:107330004FF4002004F040F8A288D4F806104FF46F
:10734000002004F083F8E6E7454BDB78052B02D0FC
:107350004FF4DA410AE72A462946504B4FF4002001
:1073600004AD04F029F803ABA288D4F8061038461F
:1073700003F0F8FFA37BB5F8FE2F03A93046FFF713
:107380004DFEC8E704F076F8FEF790FD012801D124
:10739000FEF712F903ABA288D4F80610384603F0C2
:1073A000E1FFFEF783FD012802D10020FEF704F97A
:1073B0000DF580530E3300221B8800931146384B85
:1073C0004FF4002003F0F8FF04F054F800221146B7
:1073D0000090344B4FF4002003F0EEFF0DF5805287
:1073E0000E32A37B128803A93046FFF717FEFEF783
:1073F0006BFC044604F03EF8CDE900402A4B002225
:1074000011464FF4002003F0D7FF84E7144B93F8A4
:107410000380B8F1050F9BD1244B2A4629464FF42F
:10742000002003F0C9FFD4F80630A28893F840305A
:1074300041339A423ED04046FEF7E0FCD4F8063095
:1074400093F840300193A38800932A46184B2946AD
:107450004FF4002003F0B0FFAFE600BFE385010862
:10746000D81D0020AC860108C4860108C588010823
:10747000A8880108AD880108F6850108E4250020E8
:10748000078601082C860108E41D002057860108A4
:107490005E860108768601088486010892860108C6
:1074A000F1860108048701081E8701084387010847
:1074B0005F87010803F0DEFF384603ABA288D4F8EB
:1074C000061003F04FFF0DF580530E332A461B883C
:1074D00000932946694B4FF4002003F06DFFFEF73F
:1074E000F3FB074603F0C6FF654BCDE900702A4663
:1074F00029464FF4002003F05FFF0DF580520E3255
:10750000A37B128803A93046FFF788FDFEF7DCFB5A
:107510005C4BCDE900035C4B71E75C4BDB78052BE2
:1075200004D04FF4DA41FFF7CDFBF4E603F0A2FFFD
:10753000574B00902A4629464FF4002003F03CFFA9
:107540000120FEF7B5FB03A806F0FCF903AAA18809
:10755000D4F8060006F0C8FE80462846FEF7A8FBD1
:107560000DF580530E332A461B882946CDE900834A
:107570004FF40020474B04AF03F01EFFB8F1000F9B
:1075800034D1B7F8FE2F03A9F81E0FF0EDF8B7F8C5
:10759000FE3F0333A7F8FE3FB7F8FE3F07F8048C21
:1075A00003AA13440025902203F8022C03F8015C7F
:1075B000FEF78AFB804603F05DFF374BCDE9008084
:1075C0002A4629464FF4002003F0F6FEA37BB7F8C5
:1075D000FE2F03A93046FFF721FDFEF775FB044699
:1075E00003F048FF2D4BCDE9004008E70DF5805230
:1075F0000E3203231380CFE7244BD2F80A40DB7806
:10760000032BA4B20AD0042B1FD046F68221FFF729
:1076100059FB234B2A462946102011E6214B2A46C6
:1076200029464FF4002003F0C7FE631E9BB20F2BC8
:1076300028BF0F241C494FF41043E2B23046FFF735
:107640003BFB0A20FFF75EFA65E6184B2A462946FF
:107650004FF4002003F0B0FE631E9BB2142B28BF32
:1076600014244FF41043E2B21149E7E70022114B12
:1076700011464FF4002003F09FFE69E6F1860108F1
:107680009B87010875B40008C6870108D81D002033
:10769000EF87010808880108258801084488010847
:1076A0008B880108618801089D8501087C88010894
:1076B0002C000020B88801082DE9F04704468CB062
:1076C0000078564D0E46FFF709FA2B7880462718AA
:1076D00033B17B78C02B1FBF514A002313602B703E
:1076E00008AAA6EB0801384603F0BAFA814668B149
:1076F000002211464B4B4FF4002003F05DFE49463B
:107700002078FFF7DFFA0CB0BDE8F0879DF82E1067
:10771000454A464B002908BF1346DDF82A20079248
:10772000BDF8242006929DF8232005929DF8222082
:1077300004929DF8212003929DF8202002929DF84A
:107740002F200146CDE900320246394B4FF400208C
:1077500003F032FE95F80090B9F1000F4BD114F808
:107760000880DFF8BCA018F01008DAF8005025D027
:107770002E44B6F5006F02D94FF4CE41C0E7BDF8F4
:1077800024602C48DDF82610324628440EF0ECFF29
:1077900035444FF410412078CAF80050FFF792FAB0
:1077A000DAF800300193BDF8243000934A46224BAA
:1077B00049464FF4002003F0FFFDA4E7DDB1DDF8FA
:1077C0002610BDF8242048190EF0CEFF2A4619498C
:1077D000DDF826000EF0C8FFBDF824302B449BB224
:1077E000ADF82430CDE900534246144B41464FF4E6
:1077F000002003F0E1FD08AA39462078FFF7A0FC3D
:10780000002211460E4B4FF4002003F0D5FD324606
:1078100021464FF4002003F019FE74E7E82500200C
:10782000E42500205B8A0108108C0108578A0108B2
:107830006F8A0108E41D0020B48A0108CE8A01087D
:10784000EB8A0108034B044800214FF48062196061
:107850000EF0A4BFEC290020EB2500202DE9FF4706
:1078600000220C4605469B4B11464FF4002003F0C6
:10787000A3FD002C00F02A812E7806F0F003D02B17
:1078800023D1022C8CBFAB7800230022CDE900432A
:107890001146914B4FF4002003F08EFD6B78112BB5
:1078A00009D1AB78180706D10121284604B0BDE8FC
:1078B000F047FFF7A3B9002211464FF40020874B91
:1078C00003F07AFD01218648F0E706F0C203022B9F
:1078D00040F0A1803046FFF701F9310744BF814BEA
:1078E0006A78DFF8288248BF1A7016F0100F074632
:1078F000D8F800A0C14645D00022CDE901407A4B1E
:10790000CDF800A011464FF4801003F055FDD8F8D3
:1079100000302344B3F5806F12D94FF48062CDE973
:10792000003200221146714B4FF4002003F044FD59
:1079300028784FF4DE4104B0BDE8F047FFF7C2B944
:10794000002211466A4B4FF4801003F035FD2246A9
:1079500029464FF4801003F079FDBC420BD9D8F8CA
:1079600000606448E41B2246E919304434440EF0B8
:10797000EDFEC8F800402878012104B0BDE8F047CA
:10798000FFF744BABAF1000F3ED08442DFF86481B9
:1079900009D9261A32462918564408EB0A000EF077
:1079A000D5FEC9F80060D9F800605249324608EBAC
:1079B00007000EF0D9FE3A4629464E480EF0D4FE96
:1079C0003E440022C9F8006011464B4B00964FF42C
:1079D0008010CDE9014703F0EFFC00221146444B33
:1079E0004FF4801003F0E8FC294622464FF4801043
:1079F00003F02CFDD9F800103E48FFF75DFE04B0FF
:107A0000BDE8F047FFF71EBF2946224639480EF071
:107A10009DFE2146F0E706F0E202A22A12D13207CB
:107A200042BF304B6A781A7030460121FFF7EEF9F9
:107A30000022324B11464FF4002004B0BDE8F0475D
:107A400003F0BABCC22B38D116F0300227D12C4B30
:107A500011464FF4002003F0AFFC2E783046FFF7BC
:107A60003DF8330742BF1F4B6A781A70014628461B
:107A7000FFF7C4F80220FFF745F8102000F08AF95C
:107A8000FFF736F8FFF7DEFEFFF72AF92246294610
:107A90004FF4002004B0BDE8F04703F0D7BC00224B
:107AA00011460094174B4FF4002003F085FC46F676
:107AB00085112878FFF706F9E8E700220094124BB9
:107AC00011464FF4002003F077FCDFE704B0BDE877
:107AD000F08700BF028901080A8901082589010889
:107AE0009B850108E92500203D8901086E89010870
:107AF000A4890108EB250020A8890108E78901086D
:107B0000F8890108158A0108388A0108EC29002043
:107B100010B590B008A800F0B3F82D4B9DF82A20BE
:107B200019781A709DF8243003F03803302B03D0F5
:107B30000024204610B010BD140601D4080601D55B
:107B4000FEF7D6FF9DF82A3019434A07F0D59DF875
:107B50002C40002CECD0230607D500221D4B1146EB
:107B60004FF4002003F028FCE2E704F01F04214654
:107B7000684600F0A3F8002CDAD09DF80030502BB6
:107B800021D006D8262B14D021466846FFF766FE82
:107B9000CFE7522B15D0E02BF6D19DF80100FFF76F
:107BA000F5F80D4B01229A70FFF74CFEFFF798F89D
:107BB000BFE70A4B002211464FF4002003F0FCFB04
:107BC000B7E7074BF6E7102000F0E4F8054BF1E7C4
:107BD000EA250020AC850108D81D0020D8880108BE
:107BE000E7880108F688010838B5FEF781FF00F044
:107BF000DDF80446FEF768F80546FEF765F8401B19
:107C0000092806D900F00AF9002C18BF02242046E2
:107C100038BDFFF77DFF0028EFDD0124F7E7000006
:107C2000064B1A46996811F4C05FFBD1187393682C
:107C3000DB07FCD5D068C0B2704700BF0030014000
:107C400010B50C46FFF7ECFF2046FFF7E9FF024BAB
:107C500001229A619A6210BD0004004808B500F044
:107C60001F0040F02000FFF7DBFF0020FFF7D8FFE8
:107C7000024B01229A619A6208BD00BF00040048CD
:107C800038B50C4B04469A68D20701D5DA68FAE792
:107C90002420FFF7C5FF251D0D340020FFF7C0FF8E
:107CA00005F8010BA542F8D1034B01229A619A62B3
:107CB00038BD00BF003001400004004838B504461C
:107CC000A0200D46FFF7ACFF2544AC4204D1054B84
:107CD00001229A619A6238BD0020FFF7A1FF04F8E3
:107CE000010BF2E70004004838B5044680200D4639
:107CF000FFF796FF2544AC4204D1054B01229A615F
:107D00009A6238BD14F8010BFFF78AFFF3E700BF52
:107D10000004004838B505467F200C46FFF780FF79
:107D2000680000F0FE00FFF77BFF0020FFF778FF00
:107D300020700020FFF774FF60700020FFF770FFD5
:107D4000A0700020FFF76CFF024BE07001229A61E7
:107D50009A6238BD0004004838B5054640200C46FC
:107D6000FFF75EFF680000F0FE00FFF759FF207884
:107D7000FFF756FF6078FFF753FFA078FFF750FF3B
:107D8000E078FFF74DFF024B01229A619A6238BDFD
:107D90000004004808B540F0C000FFF741FF024B67
:107DA00001229A619A6208BD0004004838B5194C56
:107DB0000120226890FAA0F1B1FA81F190FAA0F3C3
:107DC00003258140B3FA83F305FA01F1834022EAE7
:107DD000010200FA03F3134323600F4BA0611A68FA
:107DE00022F002021A601A6802431A605A6842F4CA
:107DF00080525A601A6842F040021A60A062FDF791
:107E0000FDFF1C20FFF72AFFA0F114035842584140
:107E100038BD00BF000400480030014030B51C20D0
:107E200085B0FFF71BFF1428044606D000220090FF
:107E3000564B1146102003F0BFFA00221146544B56
:107E400000944FF4002003F0B7FA03A90020FFF7D5
:107E500061FF00224F4B11464FF4002003F0ACFAB3
:107E6000042203A94FF4002003F0F0FA03A97E20B6
:107E7000FFF750FF0022484B11464FF4002003F05B
:107E80009BFA042203A94FF4002003F0DFFA9DF8C7
:107E90000C30442B06D19DF80D301BB99DF80E30E7
:107EA000202B27D0002211463C4B3D4C4FF40020A4
:107EB00003F082FA01253B4B039303A97E20FFF7D1
:107EC0004BFF0A20A561FDF799FF0A20A562FDF787
:107ED00095FF03A97E20FFF71DFF002211464FF4F6
:107EE00000202D4B03F068FA042203A94FF4002070
:107EF00003F0ACFA03A97F20FFF70CFF00222A4B06
:107F000011464FF4002003F057FA042203A94FF45E
:107F1000002003F09BFA9DF80C30052B03D19DF84F
:107F20000D30402B2FD000221146204B1C4C4FF41B
:107F3000002003F041FA05210220FFF781FE4021D5
:107F40000320FFF77DFE0125194B039303A97F2032
:107F5000FFF702FF0A20A561FDF750FF0A20A56286
:107F6000FDF74CFF03A97F20FFF7D4FE0022114646
:107F70004FF400200C4B03F01FFA042203A94FF426
:107F8000002003F063FA05B030BD00BF148C010877
:107F9000518C01086F8C0108808C0108888C0108C5
:107FA0000004004844002000A18C0108A98C0108AD
:107FB00005408000F0B5184A184F936C43F48033A5
:107FC00087B0936402243023CDE900340023CDE947
:107FD000023304936946092338460593402500F08F
:107FE000FCFC0126694638460095039600F0F5FC36
:107FF0000B4B0C4A1E6019680A431A606FF070023E
:108000001A611D621C635A6822F003025A6003223F
:108010009A6007B0F0BD00BF0010024000040048A5
:1080200000400240C0400279074B1A6822F0020269
:108030001A6003229A601A6822F010021A601A6805
:1080400042F002021A60704700400240064BDA68B4
:10805000D207FCD5DB689B0705D50022034B1146F0
:10806000102003F0A9B9704700400240C28C0108FB
:1080700010B5094C58B101280CD0FFF7D5FFFFF718
:10808000E5FFA06B2C288CBF0020012010BD102321
:10809000A362F2E72023FBE70040024070B5204DC9
:1080A0002B78002B3AD11F4A0223106893FAA3F1D0
:1080B000B1FA81F10324490004FA01F120EA010137
:1080C00093FAA3F01160D06893FAA3F1B1FA81F1A9
:1080D00093FAA3F3B3FA83F3490004FA01F10126FA
:1080E0005B0020EA010106FA03F30B43D36000BFF3
:1080F00000BF00BF00BF106980F00200C0F3400065
:108100002870D16896FAA6F3B3FA83F3B3409C4083
:1081100021EA040496FAA6F6D46070BD0120FCE7BB
:10812000F029002000040048DFF834D000F026F8E1
:10813000002103E00B4B5B58435004310A480B4BC2
:1081400042189A42F6D30A4A02E0002342F8043B5E
:10815000084B9A42F9D30EF0C7FA08F0AFF8FEE7E1
:1081600000C0002044C70108000000206003002078
:1081700060030020F0790020FEE700000E4AD2F8EC
:10818000883043F47003C2F888300C4B1A68002022
:1081900042F001021A6098601A6822F0A85222F494
:1081A00010221A604FF48052DA601A6822F480229A
:1081B0001A609861FDF700BA00ED00E0001002407F
:1081C0002DE9F041044686B0002869D090F82934A2
:1081D00003F0FF021BB980F8282401F099FE254620
:1081E000032355F8100B84F8293400F058FF0FCD05
:1081F0006E460FC62B68336004F1040898E80E0041
:10820000206800F03BFF0021206800F052FF0021B1
:108210002246234604F110050126084683F828105B
:10822000D98601310F2983F8296083F82B00C3E92F
:108230000E00186403F12003F0D100231F4682F8DA
:10824000283201330F2B82F8297282F82B72C2E98F
:108250008E77C2F8407202F12002F0D10FCD6E4647
:108260000FC62B68336098E80E00206800F023FFEB
:10827000012384F8247084F82934E369012B02D1A6
:10828000204600F095FB236A012B02D1204600F026
:108290007DFB206801F0B2F9002006B0BDE8F08156
:1082A0000120FAE790F82834012B10B504460CD0D1
:1082B000012380F82834006801F098F9206800F064
:1082C000E4FE002084F8280410BD0220FCE790F8AA
:1082D0002824012A10B504460BD0012280F8282456
:1082E00084F82410006801F07BF9002084F8280449
:1082F00010BD0220FCE770B501F00F06044611F036
:10830000800F4FEA461005461ED0254400F1280193
:108310000120214485F829000A614A780E70CB704B
:1083200002B1CE81022B04BF00230B7194F82834D4
:10833000012B11D0012384F82834206800F0D8FEE6
:10834000002084F8280470BD254400F50A7100203F
:10835000214485F82902DFE70220F4E710B504463E
:1083600001F00F00430111F0800F1A4615D022448E
:1083700003F128010123214482F82930087094F880
:108380002834012B11D0012384F82834206801F00F
:1083900007F8002084F8280410BD224403F50A7170
:1083A0000023214482F82932E8E70220F4E770B57F
:1083B00001F00F0100EB41164C01002586F8281250
:1083C00004F50A710144C6F83C22C6F84032C6F8EA
:1083D000445286F82952006801F02CF9284670BDF5
:1083E00001F00F0100EB4111B1F84402704770B584
:1083F00001F00F0100EB41154C012B640026012315
:1084000085F8281004F128010144EA636E6485F8B8
:108410002930006801F00EF9304670BD2DE9F84FA3
:108420000446006801F0F2F8000409D5DFF854A40E
:10843000DFF854B42068B0F844301A0400F1CB805F
:10844000206801F0E3F841050FD52268B2F8443006
:1084500023F480631B041B0C2046A2F8443001F077
:10846000AAFD00212046FFF732FF206801F0CEF878
:10847000430408D52268B2F8443023F480431B0437
:108480001B0CA2F84430206801F0C0F8870408D51E
:108490002268B2F8443023F400531B041B0CA2F8EA
:1084A0004430206801F0B2F8C60426D52268B2F83C
:1084B000403023F004031B041B0CA2F84030B2F838
:1084C000403023F008031B041B0CA2F8403094F842
:1084D0006034012B05D1002184F86014204600F09F
:1084E0007BFA204601F075FD2268B2F8443023F48F
:1084F00080531B041B0CA2F84430206801F086F85E
:1085000005051BD52068B0F8403043F00803A0F8FB
:108510004030B0F8443023F400631B041B0CA0F877
:108520004430B0F8403043F00403A0F8403001F08C
:108530006DF8C00402D4204601F04AFD206801F025
:1085400065F8010626D52368B3F8442022F080029E
:108550001204120CA3F8442094F86024002A40F07E
:108560008A81B3F8402042F00402A3F84020B3F817
:10857000402042F00802A3F84020B3F854309B0892
:10858000012103F03C0384F86014C4F864342046ED
:1085900000F022FA206801F039F882050BD5226834
:1085A000B2F8443023F400731B041B0CA2F84430CF
:1085B000204601F0FCFC206801F028F8C30508D52E
:1085C0002268B2F8443023F480731B041B0CA2F819
:1085D0004430BDE8F88FB0F8441089B211F00F07AD
:1085E00040F0A18011F01001038827D10AEA0303AB
:1085F0000380B0F8502094F8283000F20240104474
:10860000E26B30F83330C3F3090363641344E3636C
:10861000204601F0C5FC94F82430002B3FF40AAF4B
:10862000226C002A7FF406AF94F82430216843F0CE
:108630008003A1F84C3084F82420FBE69BB21A0595
:108640001DD5B0F8501094F8282200F206430B44D0
:1086500004F5866133F83230B4F82E22C3F30903EF
:10866000C4F8443201F0B4F82268138823F0700390
:108670001B051B0D1380204601F07AFCDAE61F046F
:108680007FF5D8AE038823F070031B051B0D038014
:10869000B0F8501094F8282200F206430B4433F847
:1086A0003230C3F30903C4F8443263B1B4F82E2264
:1086B000D4F83C1201F08CF8D4F83C32D4F84422BF
:1086C0001344C4F83C320021204601F057FC2268D4
:1086D000D4F83832B2F8501002F2064589B253B9D4
:1086E0006B5A23F440639B049B0C6FEA43436FEA8D
:1086F00053436B5207E03D2B10D85808DE0748BFA4
:1087000001308002685213880BEA030383F440535C
:1087100043F4004343F0800313808BE658485B0921
:1087200040EA8323E5E73EB230F826901FFA89F944
:1087300019F4004F3DD030F8263023F070031B05AC
:108740001B0D4FEA471820F8263004EB080191F87A
:108750003432002B53D1B0F8505091F8282200F257
:1087600006432B4433F83250C5F3090535B1B1F84F
:108770002E22D1F83C122B4601F02AF804EB4613C6
:1087800004EB0801D3F844222A44C3F84422D1F868
:108790003C222A44C1F83C22D3F840321BB1D1F824
:1087A000380285425ED2A044204698F8281201F093
:1087B000E5FB19F0800F3FF43DAE236833F8262027
:1087C0000AEA020223F8262004EB4717B3F85010F8
:1087D00097F8282003F202430B4404EB461633F8C3
:1087E0003220C2F309027264FB6B97F828101A4416
:1087F000FA63336C2046DBBB01F0D2FB1AE691F83A
:10880000283230F82350DA00B0F850306D040344B9
:1088100013441DD5B3F80254C5F3090535B1B1F8B9
:1088200030222B46D1F83C1200F0D2FF04EB0803B3
:10883000226893F8281232F8213023F4E04323F021
:10884000700343F4004343F0C00322F8213095E75E
:10885000B3F80654C5F30905002DE7D02B46B1F84F
:108860003222DFE791F828122046FFF7A0FDA0E7AB
:10887000FFF7BDFDDEE5204601F0AAFB8AE600BF5A
:108880000080FFFF0F8FFFFF8FBFFFFF38B54368EA
:1088900001F00F059D4204462DD811F0800F4FF0D6
:1088A00020031ED000EB451203FB050301212833F2
:1088B00082F8291001229A701D7094F828149142B0
:1088C0001BD084F828241946206800F02FFE25B913
:1088D00004F58661206800F09CFE002084F82804DE
:1088E00038BD03FB010300EB4111002203F50A73BD
:1088F00081F82922DEE70120F2E70220F0E738B50F
:10890000044601F00F006368984224D8430111F037
:10891000800F1A4617D0224403F128010123214475
:1089200082F8293000258D70087094F82834012BC6
:1089300013D0012384F82834206800F013FE84F853
:108940002854284638BD224403F50A7100232144E7
:1089500082F82932E6E70120F4E70220F2E711F07D
:10896000800F1BBF01F00F0100EB411000EB411025
:10897000283008BF00F50A7099B21AB90273C18095
:1089800000207047012202738360F9E70368012227
:10899000C0F86C24B3F8582042F00102A3F8582024
:1089A000B3F8582042F00202A3F858200020704784
:1089B000036802460121C0F86814002082F86004B0
:1089C000B3F854200A43A3F85420B3F8542042F0DB
:1089D0000202A3F85420704770472DE9F04F0A684F
:1089E00092FAA2F44D68B4FA84F405F1FF3C4FF01A
:1089F000010803264FF00F0E32FA04F30CD1BCF13C
:108A0000010F06D84368C96823EA02034A431343A7
:108A100043600120BDE8F08F08FA04F3134062D0F0
:108A2000D0F800A093FAA3F9B9FA89F993FAA3F759
:108A3000B7FA87F74FEA490906FA09F97F002AEAE7
:108A4000090905FA07F749EA0707BCF1010F0760B2
:108A500016D8876893FAA3F9B9FA89F993FAA3FAB1
:108A60004FEA490906FA09F927EA0909BAFA8AFA1E
:108A70008F684FEA4A0A07FA0AF749EA0707876048
:108A8000C76893FAA3F9B9FA89F993FAA3FA4FEAF6
:108A9000490906FA09F927EA0909BAFA8AFA0F69AF
:108AA0004FEA4A0A07FA0AF749EA0707022DC760A0
:108AB00019D1FF2BD1F8149017D8D0F820A093FA31
:108AC000A3FBBBFA8BFB93FAA3F7B7FA87F74FEA3E
:108AD0008B030EFA03F3BF002AEA030309FA07F92E
:108AE00043EA09030362013486E7476A1B0A93FAE3
:108AF000A3FABAFA8AFA93FAA3F3B3FA83F34FEA22
:108B00008A0A0EFA0AFA9B0027EA0A0709FA03F909
:108B100047EA09074762E6E7024B1868C0F380207E
:108B2000704700BF00100240024BD3F89000C0F322
:108B30004000704700100240024B1868C0F3C000AC
:108B4000704700BF00100240034B044A9B68C3F308
:108B50000313D35CD840704700100240D68C010844
:108B6000034B044A9B68C3F30223D35CD84070478D
:108B700000100240E68C0108034B044A9B68C3F3D3
:108B8000C223D35CD840704700100240E68C010835
:108B90001E4AD36803F00303022B10B532D0032B17
:108BA00032D01B49FFF7C8FF0446E0B9FFF7C4FF06
:108BB000A0B1136851F82400D468D168D368C4F315
:108BC0000212C3F3416301320133B0FBF2F0C1F38F
:108BD000062250435B00B0FBF3F010BDD2F8944086
:108BE000C4F30324E6E7FFF7A7FF28B11368C3F334
:108BF000031351F82300DFE7D2F894301B0903F088
:108C0000F003F6E70348D7E70348D5E70010024032
:108C1000F08C01080024F40000127A001B4A9368CB
:108C200003F00C0310B50C2B0ED8DFE803F00D0D8C
:108C30000D0D2D0D0D0D070D0D0D0900144810BD66
:108C4000BDE81040FFF7A4BFFFF776FF114C0146C7
:108C500058B9FFF771FF18B1136854F82100EEE717
:108C6000D2F89410C1F30321F7E7FFF765FF28B1AD
:108C70001368C3F3031354F82300E0E7D2F89430E9
:108C80001B0903F0F003F6E70348D8E700100240A1
:108C900000127A00F08C01080024F400032808B5C3
:108CA00028D12E4B2E4AD3F8883003F0030343F427
:108CB0004033934209D0B3F1031F0CD0013A9342E1
:108CC00010D1BDE80840FFF7A9BFFFF725FF002836
:108CD00042D1002041E0FFF727FF0028F9D04FF4F0
:108CE00000403AE0FFF79AFFFFF72EFFBDE808408B
:108CF000FFF742BF0C28ECD1184BD3F8883003F0B3
:108D00000C0343F44023A3F540230C2BE1D801A22C
:108D100052F823F0498D0008D38C0008D38C00084A
:108D2000D38C0008C38C0008D38C0008D38C0008B7
:108D3000D38C0008CB8C0008D38C0008D38C00089F
:108D4000D38C0008D78C0008FFF768FFFFF7FCFE04
:108D5000BDE80840FFF704BF024808BD001002400C
:108D6000020003000024F4001A4A0368904210B580
:108D700002D0B0F1804F09D14C6823F070039042CB
:108D800043EA040309D0B0F1804F06D0124A904262
:108D900003D002F58062904203D1CA6823F4407385
:108DA000134303608B68C3620B888362094B98424C
:108DB00007D003F5A053984203D003F5806398428F
:108DC00001D10B7C0363436943F00103436101203C
:108DD00010BD00BF002C014000400140B1F5807F74
:108DE00030B500F0B58005D801293BD0102973D0EB
:108DF000002030BDB1F5803F00F0E580B1F5801F67
:108E000000F00D81B1F5805FF2D1036A156823F49B
:108E100080530362036A4468C16921F0807121F4C0
:108E2000E64141EA0521156923F4005343EA05337D
:108E3000556823F4805343EA05338F4DA84207D089
:108E400005F5A055A84203D005F58065A84204D1D8
:108E5000956924F4804444EA8514D2684460C16171
:108E6000026436E0036A156823F001030362036AB3
:108E70004168846924F4803424F073042C43156918
:108E800023F002032B43556823F001032B437A4D53
:108E9000A84207D005F5A055A84203D005F5806586
:108EA000A84212D1556923F0080343EA8503956867
:108EB00023F0040343EA8503956921F48071294373
:108EC000D56921F4007141EA4501D26841608461AD
:108ED0004263036201208CE7036A156823F01003E4
:108EE0000362036A4168846924F0807424F4E644D0
:108EF00044EA0524156923F0200343EA0513556865
:108F000023F0100343EA05135B4DA84207D005F593
:108F1000A055A84203D005F58065A84213D1556934
:108F200023F0800343EA8513956823F0400343EA66
:108F30008513956921F4806141EA8501D56921F4A1
:108F4000006141EAC501D268416084618263C0E783
:108F5000036A156823F480730362036A4168C46975
:108F600024F4803424F073042C43156923F4007333
:108F700043EA0523556823F4807343EA05233E4DF5
:108F8000A84207D005F5A055A84203D005F5806595
:108F9000A84213D1556923F4006343EA85239568F9
:108FA00023F4806343EA8523956921F4805141EAE3
:108FB0000511D56921F4005141EA4511D26841609B
:108FC000C461C26385E7036A146823F480330362D3
:108FD000036A416D21F4803121F070010C43116965
:108FE00023F4003343EA0143516823F4803343EA16
:108FF00001432149884207D001F5A051884203D09E
:1090000001F58061884206D14168956921F480317B
:1090100041EA05214160D2684465826559E7036AE7
:10902000146823F480130362036A416D21F0807198
:1090300021F4E04141EA0424116923F4001343EAD6
:109040000153516823F4801343EA01530A498842CB
:1090500007D001F5A051884203D001F58061884214
:1090600006D14168956921F4802141EA852141605A
:10907000D2684465C2652CE7002C014084B001A889
:1090800080E80E0004B000207047B0F8403043F490
:109090003F4343F08003A0F8403000207047B0F811
:1090A000403023F47E535B045B0CA0F8403000207A
:1090B00070470020704784B010B503AC84E80E0000
:1090C00000220123A0F84030BDE81040A0F8402065
:1090D000A0F84420A0F85020B0F8403043F43F43BB
:1090E00043F08003A0F8403004B010467047000001
:1090F000F0B50C7830F824200346C87822F4EC420E
:1091000022F0700203284CD8DFE800F00248044542
:1091100042F40072002023F824200E789D4C35B2D2
:1091200033F825202240324342F4004242F08002CC
:1091300023F825200D7B0A78002D7CD1CE884F782E
:1091400076080825760015FB023267B3B3F8505055
:109150002A44A2F800640D7833F82520560608D575
:1091600033F82520144044F4004444F0C00423F8AC
:109170002540CA780C78012A33F82410864A02EA7E
:10918000010218BF82F0200242F4004242F0800245
:1091900023F82420F0BD42F4C062BBE742F48062B1
:1091A000B8E70120B7E7B3F8504022440C69A2F8B1
:1091B00004640A78B3F8506015FB0232B6B202F2CA
:1091C000064254B9945B24F44064A404A40C6FEAEE
:1091D00044446FEA5444945307E03D2C26D8650874
:1091E000E40748BF0135AD0295530C7833F82420CD
:1091F00052040BD533F8242022F4E04222F070020E
:1092000042F4404242F0800223F82420097833F8E7
:10921000212022F4804222F0700282F4405242F473
:10922000004242F0800223F82120B3E75B4D64093D
:1092300045EA8424CFE712B233F82250254045F4A2
:10924000014545F0800523F822500D78B3F85060B1
:10925000082212FB053535440E8926F00106A5F8D3
:1092600000640E78B3F8505012FB06322A444D8940
:1092700025F00105A2F804540A784D7812B2002DA9
:1092800043D133F822506F0408D533F822502C40D4
:1092900044F4404444F0800423F822400C7833F82E
:1092A000242056060BD533F8242022F4E04222F085
:1092B000700242F4004242F0C00223F824200C78ED
:1092C00033F8242022F4E04222F0700242F40042FB
:1092D00042F0C00223F824200D7833F8252022F430
:1092E000804222F0700248F2800482F4405222430D
:1092F00023F82520097833F8212022F4E04222F0D7
:109300004002144323F8214044E733F822506D040F
:1093100008D533F822502C4044F4404444F08004F3
:1093200023F822400C7833F8242052060BD533F86A
:10933000242022F4E04222F0700242F4004242F083
:10934000C00223F824200C7833F8242022F4E042D1
:1093500022F0700242F4404242F0800223F82420BE
:109360000C78CA7824B2012A33F824500A4A02EA57
:10937000050218BF82F0200242F4004242F080024F
:1093800023F82420097833F8212022F4804222F0A7
:10939000700244E78F8FFFFFBF8FFFFF0080FFFF4A
:1093A00010B50C7B4A780B78BCBBF2B130F82320A7
:1093B00052060BD530F8232022F4E04222F070024E
:1093C00042F4004242F0C00220F823200A7830F82C
:1093D000223023F4E04323F0400343F4004343F0FE
:1093E000800320F82230002010BD30F823205404E0
:1093F0000BD530F8232022F4E04222F0700242F430
:10940000404242F0800220F823200A7830F82230CF
:1094100023F4804323F07003DFE7002A44D130F8BF
:10942000232052040BD530F8232022F4E04222F00E
:10943000700242F4404242F0800220F823200A7871
:1094400030F822305C060BD530F8223023F4E043AC
:1094500023F0700343F4004343F0C00320F82230AC
:109460000A7830F8223023F4E04323F0700343F409
:10947000004343F0C00320F822300C7830F8243049
:1094800023F4804323F0700348F28002134320F852
:109490002430097830F8213023F4E04323F04003EE
:1094A0001A4320F821209EE730F8232052040BD5E0
:1094B00030F8232022F4E04222F0700242F44042CD
:1094C00042F0800220F823200A7830F822305B0630
:1094D0000BD530F8223023F4E04323F0700343F43B
:1094E000004343F0C00320F822300A7830F82230DD
:1094F00023F4E04323F0700343F4404343F080033C
:1095000020F822300C7830F8243023F4E04323F0A4
:10951000400348F28002134320F82430097830F8E1
:10952000213023F4804323F07003B9E74B780A78A5
:109530007BB130F8223023F4E04323F0400383F082
:10954000100343F4004343F0800320F8223000204E
:10955000704730F8223023F4804323F0700383F403
:109560008053EEE74B780A7803B330F822305B067D
:109570000BD530F8223023F4E04323F0700343F49A
:10958000004343F0C00320F822300A7830F822303C
:1095900023F4E04323F0400383F0300343F400431B
:1095A00043F0800320F822300020704730F822304A
:1095B0005B040BD530F8223023F4E04323F0700332
:1095C00043F4404343F0800320F822300A7830F817
:1095D000223023F4804323F0700383F44053DDE70B
:1095E00011B98023A0F84C3000207047B0F85830F3
:1095F00043F40043A0F8583000207047B0F85830CA
:10960000C3F30E03A0F8583000207047B0F84400B0
:1096100070470020704702F58062013302445B0806
:1096200001EB4303521A994200D170470888505207
:109630000231F8E7F8B5044648788E690A690F7B6D
:1096400001280D4659D196428ABFB11A002116460B
:10965000A961B6B26969EFB93346EA882046FFF7D7
:10966000DAFFB4F850102A7804F202430B4423F8CE
:1096700032602A7834F8223023F4E04323F04003A8
:1096800083F0300343F4004343F0800324F8223096
:109690000020F8BD2B7834F82300DA00B4F85030FD
:1096A0002344134447064BBFA3F80664A3F802649F
:1096B0006A892A8933462046FFF7ADFF6A782B78FE
:1096C0006AB91BB234F8232022F4E04222F070027F
:1096D00042F4004242F0C00224F82320C9E7012AE4
:1096E000C7D11BB234F8232022F4E04222F07002EA
:1096F00042F4404242F08002EEE796428CBFB11A3B
:109700000021A96188BF1646297897B9B4F850009E
:1097100004F20642024402EBC102AEBB138823F4FA
:1097200040639B049B0C6FEA43436FEA53431380EF
:1097300032E088B9B4F8500004F20242024402EB6D
:10974000C102A6B9118821F440618904890C6FEA2D
:1097500041416FEA514111806A7828785ABBB4F8C8
:10976000501004F206420A4402EBC002D5E73D2E37
:1097700005D87108F00748BF01318902EBE71348AB
:10978000710940EA8121E6E73D2E0FD87108F30701
:1097900048BF0131890211802A7834F8223023F43D
:1097A000804323F0700383F440536BE7074B710948
:1097B00043EA8123BBE7012A01BFB4F8502004F239
:1097C0000641891821F83060E6E700BF0080FFFFFE
:1097D00002F58062F0B510445D080C462E46471A2B
:1097E0003A19023436B9DB0744BF30F8153001F8B6
:1097F0001530F0BD128804F8022C120A04F8012C6E
:10980000013EEDE74FF47A73B0FBF3F0034B002217
:10981000013858609A6005221A60704710E000E035
:10982000014B1860704700BF440000200F4B984266
:109830000BD103F558431A6C42F480421A641A6C37
:1098400022F480421A6401207047094B98420AD1E1
:1098500003F5E6339A6B42F400329A639A6B22F472
:1098600000329A63EFE70020704700BF00380140E4
:109870000044004038B50368DB0704460D4601D5B7
:10988000002038BDEA686B68016813432A691343F6
:10989000AA6913431B4A0A40134303604368AA683A
:1098A00023F440531343436083686A6923F440738D
:1098B00013438360144B98421AD10320FFF7EEF94B
:1098C0000028DDD02A68002ADAD0A969B1F5004F56
:1098D0004FEA520311D103EB4003B3FBF2F34FF60F
:1098E000F0721A40C3F342031343E3600120C8E758
:1098F000064B9842C4D10C20E0E70344B3FBF2F3DB
:109900009BB2F2E7F369FFEF0038014000440040EA
:1099100003685B0670B526D4D1E900363343CE68C0
:109920004D6904680A6A33430E6933438E692B43D9
:109930003343CE6924F47F44334324F0BF041343FC
:109940002343036044688B6824F4706443EA15433E
:1099500024F004042343B2F5005F436001D18B8CF3
:109960000361012000E0002070BD00000146D0E945
:109970000032007A30B5002800F08280002B4AD0F7
:109980004C7A012C29D060B2F0B1022C2FD00120EA
:109990008C7A6CB1022C2ED0032C35D0012C37D10F
:1099A000404CE56825EA0305E560A5682B43A36004
:1099B000002A4AD04B7A012B48D0002B2DD0022B05
:1099C0004DD040F0040030E0364C656825EA0305D0
:1099D000656025681D432560DAE73248046824EA9B
:1099E0000304046044681C4344600020D0E72D4811
:1099F00004681C43F5E72B4CA56825EA0305A56020
:109A0000E5682B43E360D3E7264CA5681D43F6E7E2
:109A100040F00200CCE71846CAE7224B5C6A24EA11
:109A200002045C621C6A14431C628B7A6BB1022BC9
:109A300019D0032B20D0012B32D11A4BD96A21EA3D
:109A40000201D962996A0A439A6230BD154B1C6AB9
:109A500024EA02041C625C6A14435C62E5E7114B71
:109A60001C6A1443F6E70F4B996A21EA02019962D6
:109A7000D96A0A43DA62E8E70A4B996A1143F6E7C2
:109A800008490C68DB431C400C604C6823404B6069
:109A90000B6AD24313400B624B6A1A404A62D4E706
:109AA0000020D2E700040140D0F8943210B56BB129
:109AB000D0F8904294F84000FF2807D09B6894F8B3
:109AC000412021469847FF2384F84030002010BDF4
:109AD00038B50546D0F8904200F03DFBD5F89032FD
:109AE000E06443B1D5F89432606CDB6804F14C015A
:109AF0009847002038BD0220FCE7F8B5D0F8906206
:109B0000C6B1142303FB0103DA6982B1D0F898428D
:109B100004EB4114A56BB2FBF5F405FB142434B936
:109B2000DC612246234600F008FB2046F8BD0020F9
:109B30007065FBE70220F9E72DE9F7430A78D0F8D2
:109B400090724FF0000812F0600305460E468DF843
:109B50000580ADF8068025D0202B55D1CC884B78D8
:109B6000CCB112060DD5D0F894223946D2F808901F
:109B700018462246C847F2883946284600F019FCA4
:109B800007E087F8403087F841402246394600F028
:109B900025FC00203DE0D0F8942218469568224626
:109BA000A847F6E74B780B2B2ED801A252F823F0EA
:109BB000E19B0008099C0008099C0008099C00081A
:109BC000099C0008099C0008939B0008099C000858
:109BD000099C0008099C0008F19B0008019C0008F2
:109BE00090F87432032B0FD102220DF10601C4E765
:109BF00090F87432032B07D101220DF10501BCE767
:109C000090F87432032BC4D02846314600F0F9FD99
:109C1000022003B0BDE8F08338B504460025822158
:109C200000F05FFA02212564204600F05AFAC4F8D9
:109C30006C518321204600F054FAD4F890326565C7
:109C40002BB1D4F894325B689847C4F89052002046
:109C500038BD000070B5402304460222822100F086
:109C600036FA01250222256411464023204600F0E1
:109C70002EFAC4F86C51032283210823204600F0F9
:109C800026FAD4F894326565074DC4F890521B68E3
:109C90009847002640236A6C6E6502212046AE6517
:109CA00000F052FA304670BDF429002019B1C0F816
:109CB00094120020704702207047D0F890320020A4
:109CC00099641A657047D0F8903200205964704743
:109CD000D0F8902210B562B1546D01235CB9536580
:109CE000136D4364926C9BB2822100F026FA2046E9
:109CF00010BD0220FCE71846FAE7D0F8902208B51C
:109D000032B14023526C022100F01EFA002008BD3F
:109D10000220FCE7002070470020704710B5054C7A
:109D200001462046FFF7CFFF2046FFF7E6FF002061
:109D300010BD00BFA44A002010B5064C0649002201
:109D40002046FFF7BAFF05492046FFF7BCFF002079
:109D500010BD00BFA44A002028520020404E002021
:109D600010B5084CD4F890325B6D0A4643B90146F1
:109D70002046FFF7A2FF2046BDE81040FFF7A8BF2E
:109D8000012010BDA44A0020F8B50A4D06460F4632
:109D9000002455F8043B23B90134032CF9D10020E9
:109DA000F8BD1B683946304698470028F4D0022099
:109DB000F6E700BF502A0020F8B50A4D06460F46C8
:109DC000002455F8043B23B90134032CF9D10020B9
:109DD000F8BD5B683946304698470028F4D0022029
:109DE000F6E700BF502A00200B792DE9F041064626
:109DF0000D4623B1022B0ED8174B9B6801E0164B82
:109E00001B68287810F0600007D0202815D1EBB926
:109E10000220BDE8F0810023F3E76A78062A04D027
:109E2000F7D30A3A012AF2D9F3E70B4F044657F861
:109E3000043B23B90134032CF9D10020E9E79B68E6
:109E40002946304698470028F4D0E1E729463046B5
:109E50009B68BDE8F0411847502A0020054B53F895
:109E60002120054B53F822300BB15B6918470220C3
:109E7000704700BF50560020502A0020054B53F871
:109E80002120054B53F822300BB19B691847022063
:109E9000704700BF10560020502A002070B50A4DB0
:109EA0000646002455F8043B23B90134032CF9D1AC
:109EB000002070BD1B69002BF7D030469847002862
:109EC000F3D00220F5E700BF502A00206F23038063
:109ED00000487047900000200A2303800048704724
:109EE000380100206F230380004870479000002055
:109EF0006F230380004870479000002010B5034B8B
:109F000000215960D96018609A6010BD502A002065
:109F1000144A936D43F0806393658369012B01BFFD
:109F2000A2F58632136843F4802313600E4BDA687F
:109F3000C2F30222C2F10701131D042928BF042124
:109F4000062B4FF0FF3303FA01F38CBF033A0022D4
:109F5000DB4393401B01054ADBB282F843330823FD
:109F6000936070470010024000ED00E000E100E067
:109F700000F58661D0F8700400F026B900EB4113BB
:109F800010B5D3F83C22D0F870040C4600F049F923
:109F9000012C04D12046BDE8104000F09BBD10BD4F
:109FA00000EB4113D0F87004DA6B00F070B9D0F810
:109FB000700400F0F2B910B504460121D0F8700425
:109FC00000F0E8F9D4F87004BDE8104000F0BBB927
:109FD00070477047364A536843F4806310B5536046
:109FE0000446344A34480823C0E90023C0F87044CA
:109FF00000230222C4F89802C0E90223C0E9042326
:10A00000C0E906330362FEF7DBF818B1FE212B48E6
:10A01000FCF738FB002211461823D4F89802FEF70B
:10A020009EFC582300228021D4F89802FEF797FC6A
:10A03000982300220121D4F89802FEF790FCD8233F
:10A0400000228121D4F89802FEF789FC4FF48C732A
:10A0500000220421D4F89802FEF781FC4FF4AC737F
:10A0600000228621D4F89802FEF779FC4FF4CC73D5
:10A0700000228521D4F89802FEF771FC4FF4EC73AE
:10A0800000228321D4F89802FEF769FC4FF406738E
:10A0900000220221D4F89802FEF761FC4FF41673F7
:10A0A00000228221D4F89802FEF759FC002010BD4E
:10A0B000007000400068004090560020208D01088C
:10A0C00008B5D0F89802FEF7EDF8002008BD10B5ED
:10A0D0001C46D0F8980213462246FEF70CF90020E1
:10A0E00010BD08B5D0F89802FEF738F9002008BD79
:10A0F00008B5D0F89802FEF7C9FB002008BD08B5E6
:10A10000D0F89802FEF7FBFB002008BD0A06D0F845
:10A11000983245BF01F07F0103EB411303EB41137C
:10A1200093F82A0058BF93F82A02704708B5D0F870
:10A130009802FEF7CCF8002008BD08B5D0F89802C8
:10A14000FEF755F9002008BD08B5D0F89802FEF7D3
:10A150002EF9002008BD08B5D0F89802FEF740F9A6
:10A1600008BD08B580B1D0F88C3213B10023C0F817
:10A170008C3209B1C0F88812012380F87432027061
:10A18000FFF728FF002008BD0220FCE719B1C0F846
:10A190008C12002070470220704708B5FFF790FF2F
:10A1A000002008BD08B5D0F88C320BB9022008BDDC
:10A1B0001B6898470028FAD0F8E708B5D0F88C3229
:10A1C0005B689847002008BD38B5044600F5207547
:10A1D000284600F002FB012394F88012C4F86C3288
:10A1E000B4F88632C4F8703201F01F03012B0ED090
:10A1F0003BB1022B10D001F080012046FFF778FF21
:10A2000003E02946204600F01FF9002038BD29460A
:10A21000204600F035FAF8E72946204600F055FAC6
:10A22000F3E770B50546164629BBD0F86C32032B10
:10A230001CD1D0E9533293420BD99B1A9A42C0F8F1
:10A240004C318CBF9AB292B2314600F0D4F8002063
:10A2500070BDD0F88C321B6923B190F87422032AA8
:10A2600000D19847284600F0CEF8F0E7052BEED154
:10A27000FFF73EFFEBE7D0F88C329B692BB190F8EB
:10A280007422032A01D19847E1E70220E0E770B584
:10A29000134604460E46002948D1D0F86C22022A03
:10A2A0003DD1D0E90852954214D9AA1A0262194642
:10A2B00092B200F08BF833461A4619462046FFF753
:10A2C00043FF94F87832012B4FF0000001D184F85D
:10A2D000780270BDC369B3FBF2F502FB153565B9B1
:10A2E0009A420AD8D0F87022934206D22A4600F049
:10A2F0006DF8C4F870522B46DEE7D4F88C32DB6878
:10A300002BB194F87422032A01D12046984780216A
:10A310002046FFF7EDFE204600F080F8D1E732F04E
:10A320000403CED18021FFF7E3FECAE7D0F88C32D8
:10A330005B6933B190F87422032A02D19847002058
:10A34000C7E70220C5E770B5002204461146012583
:10A3500040264023FFF7BBFE33468021C4F844511A
:10A36000C4F8506100222046FFF7B1FED4F89032C5
:10A37000A5610021666284F87452C4F86C126160B1
:10A38000C4F87C1223B1D4F88C3220465B6898471D
:10A39000002070BD01740020704708B590F8742249
:10A3A000032A04D1D0F88C32DB6903B1984700202E
:10A3B00008BD10B513460222C0F86C22C0E907336D
:10A3C0000A460021FFF7B9FE002010BD08B513466C
:10A3D0000A460021FFF7B1FE002008BD10B5134664
:10A3E0000322C0F86C22C0E952330A460021FFF76D
:10A3F000ABFE002010BD08B513460A460021FFF74A
:10A40000A3FE002008BD08B50423C0F86C32002369
:10A410001A461946FFF791FE002008BD08B505232E
:10A42000C0F86C3200231A461946FFF78DFE002053
:10A4300008BD10B580210446FFF75AFE20460021D2
:10A44000BDE81040FFF754BE37B50B7803F060034A
:10A45000202B04460D4614D0402B12D0002B40F088
:10A460008E804B78092B00F28A80DFE813F0E3003E
:10A47000FC008800F50088007D0013008800CE00F5
:10A480009B00D4F88C3229469B68204698470020D0
:10A4900003B030BD4B881A0A013A062A6FD8DFE8AC
:10A4A00002F00416236E6E434C00D0F888321B680D
:10A4B000207C0DF106019847BDF80620002A4FD0F8
:10A4C000EB88002B43D12046FFF79DFFDFE7027C9E
:10A4D000D0F88C3232B99B6A0DF1060098470223FE
:10A4E0004370E9E7DB6AF7E7DBB2052B47D8DFE823
:10A4F00003F003070B0F1317D0F888325B68D7E718
:10A50000D0F888329B68D3E7D0F88832DB68CFE791
:10A51000D0F888321B69CBE7D0F888325B69C7E78F
:10A52000D0F888329B69C3E7037C43BBD0F88C32F8
:10A530000DF106005B6B9847BEE7037CFBB9D0F8D2
:10A540008C320DF106001B6B98470723C8E79A422F
:10A5500028BF1A4601462046ADF80620FFF729FF1E
:10A56000EB88002B93D1AEE78B8843B9CB8833B906
:10A570004D887F2D03D890F87432032B03D12046E9
:10A58000FFF757FF83E7E9B280F87612FFF7CEFDB9
:10A590002046FFF738FF1DB1022384F8743276E7B6
:10A5A0000123FAE78978354D01292970E7D890F819
:10A5B0007432022B08D0032B15D0FFF73AFF29780D
:10A5C0002046FFF7FAFD62E700293FF47CAF012146
:10A5D0000323416080F874322046FFF7E3FD022830
:10A5E0007FF471AFCBE731B9022380F87432416058
:10A5F000FFF7E3FD67E7416801293FF464AFC9B2A3
:10A60000FFF7DBFD29786160E6E7CA88012AB6D149
:10A6100090F87432002BB2D0022B03D9032BAED1A9
:10A62000011D03E00146002341F8083F2046FFF7E3
:10A63000C0FE2CE790F87432013B022B9FD8CA88E9
:10A64000022A9CD1D0F87C320146002B14BF13465D
:10A65000002341F80C3FE9E74B88012B7FF417AF4B
:10A66000C4F87C322FE790F87432013B022B86D875
:10A670004B88012B7FF40BAF0023F1E7602A002009
:10A6800038B50B7803F06003202B04460D4602D04A
:10A69000402B00D0ABB994F87432013B022B10D898
:10A6A0002B79012B0DD8D4F88C3229469B68204693
:10A6B0009847EB881BB910B92046FFF7A4FE00208D
:10A6C00038BD2046FFF7B5FEF9E738B50A7802F045
:10A6D0006002202A04460B4615D0402A13D072B9D6
:10A6E0005A788D88012AE9B221D0002A36D0032A6F
:10A6F00005D190F87422022A27D0032A0BD02046D5
:10A70000FFF797FE05E0D4F88C22194692682046A0
:10A710009047002038BD5A882AB94A0603D0DB8802
:10A720000BB9FFF7E5FC2046FFF76DFEF1E790F867
:10A730007422022A09D0032AE1D15B88002BE8D1D8
:10A740004D06F0D0FFF7DBFCEDE74B06D7D0FFF767
:10A75000CFFC80212046FFF7CBFCDAE790F874327B
:10A76000022B18D0032BCAD101F00F02142315F0CD
:10A77000800F03FB02021DD09269002ABFD001F0B6
:10A780007F0505FB0335054411F07F031DD12B60C8
:10A79000022229460AE04A06B1D12B064CBF00F13D
:10A7A000140100F5A07100230B6002222046FFF780
:10A7B00000FEAEE7D2F84421002AA0D001F07F05C8
:10A7C00003FB050505F5A075DEE72046FFF79EFCB7
:10A7D00008B10123DBE72860DAE70B7803704B78D8
:10A7E0004370CA788B7803EB022343804A790B7954
:10A7F00003EB02238380CA798B7903EB0223C380A6
:10A80000704710B580210446FFF772FC20460021F6
:10A81000BDE81040FFF76CBC30B588B1042A0FD9F1
:10A8200000220138551C445D5CB9D2B2013252009D
:10A830001A8003234B700A70022310F8015F15B9C8
:10A8400030BD2A46EEE75A1CD2B2CD540233DBB2F9
:10A850008C54F2E712230B8000487047358D0108B5
:10A8600004230B80004870476C8D010810B5044C20
:10A8700004480B4630222146FFF7CEFF204610BD8C
:10A88000045B0020508D010810B5044C04480B46B1
:10A8900030222146FFF7C0FF204610BD045B002098
:10A8A000478D010870B5254A8CB00B4607AC02F104
:10A8B000100610685168254603C50832B2422C467E
:10A8C000F7D112782A701E491E4C00228DF81820EC
:10A8D000C87A8DF804001C480078247820448DF84C
:10A8E0000500487A8DF80600184800780C78204456
:10A8F0008DF80700C8798DF8080089798DF809105E
:10A9000003AC01AD204615F8011B0CAE06EB111689
:10A9100001F00F0116F8146C26700CAE31440132B0
:10A9200011F8141C6170062A04F10204EBD13022E4
:10A930000749FFF771FF06480CB070BD5B8D010839
:10A940009075FF1F9275FF1F9A75FF1F9875FF1F67
:10A95000045B00202923038000487047D4010020B5
:10A96000D0F8903200201873704700000A2303804B
:10A9700000487047C801002037B50022D0F8903257
:10A98000ADF806200446CA88087802F07F0210F06D
:10A990006000CA801DD020282ED14A78023A092AA8
:10A9A0002AD8DFE802F013092929292929290F05C6
:10A9B0008A781A60002023E0012219462046FFF71A
:10A9C000F8FCF7E74A88120A5A60F3E70122191DDA
:10A9D000F4E748780B280FD8DFE800F0060E0E0EDB
:10A9E0000E0E140E0E0E2E3694F87432032B03D175
:10A9F00002220DF10601E1E72046FFF702FF0220E7
:10AA000003B030BD4B881B0A222B0DD1222A28BF50
:10AA100022221546002211460F4B4FF4007000F021
:10AA2000CBFC0E492A46C9E7212BE5D1092A28BFCC
:10AA3000092215460A49F5E794F87422032ADBD166
:10AA4000012203F10801B9E794F87422032AD3D153
:10AA50008A789A60AEE700BF708D0108600100201F
:10AA6000BC01002010B581210446FFF73AFB01210B
:10AA70002046FFF736FB0020E062C4F8580110BD05
:10AA800010B54023044603228121FFF720FB402319
:10AA9000032201212046FFF71AFB0121074BE16247
:10AAA000C4F85811C4F8903200241C73044A0548B5
:10AAB0004023FFF749FB204610BD00BFA12A00201C
:10AAC000612A0020A44A0020D0F890320020187398
:10AAD0007047000070B5094C40252046FBF7E4FDA7
